:100000000C943C470C945B470C945B470C945B4707
:100010000C945B470C945B470C945B470C945B47D8
:100020000C945B470C945C520C945B470C945B47BC
:100030000C945B470C945B470C945B470C9455669F
:100040000C945B470C945B470C945B470C945B47A8
:100050000C945B470C945B470C945B470C945B4798
:100060000C945B470C945B470C945B470C945B4788
:100070000C945B470C945B470C945B470C945B4778
:100080000C945B470C945B470C945B470C945B4768
:100090000C941D660C94E3650C94D8650C945B4736
:1000A0000C945B470C945B470C945B470C945B4748
:1000B0000C945B470C945B470C945B470C945B4738
:1000C0000C945B470C945B470C945B47436F6E66E4
:1000D00069677572652073797374656D00436F6E1F
:1000E00074726F6C00EF00FA0005011001160165D3
:1000F00043617273206545435500202020204375DD
:1001000072746973005369676D6144726976650042
:100110004170706C790043616E63656C0000000093
:1001200000000000000000000000000000000000CF
:1001300000000000000000000000000000000000BF
:1001400080804040A0A0D0D0D0E8E8E0F4F4F4F003
:10015000FAFAFAFAFAF8F8FCFCFCFCFCFCFCFCFCF1
:10016000F8F8FAFAFAFAFAF8F0F4F4F4E8E8E8D071
:10017000D0D0A0A04040808000000000000000001F
:10018000000000000000000000000000000000006F
:10019000000000000000000000000000000000005F
:1001A000000000000000000000000000000000004F
:1001B0000000000000804060A0D0E8E4F4FAF9FDFF
:1001C000FEFEFFFFFFFFFFFFFFFF7F7FBFBFBF5FA1
:1001D0005F5F5F8F6F6F6F6FAFAFAFAFA7AFAFAF47
:1001E000AF6F6F6FAF8F5F5F5F5FBFBFBF7F7FFF1F
:1001F000FFFFFFFFFFFFFEFEFDF9FAF4E4E8D0A0E9
:10020000408000000000000000000000000000002E
:1002100000000000000000000000000000000000DE
:10022000000000000000000000000000000000C00E
:100230002090E8F6F9FCFEFFFFFFFFFFFFFFFFFF46
:100240007F9F4F27170B0505028241A1D0E8F4F2EA
:10025000FAFDFCFEFEFFFFFFFFFFFFFFFFFFFFFFBA
:10026000FFFFFFFFFEFEFDFDFAF4E8D020C1010212
:100270000205091B37CF3FFFFFFFFFFFFFFFFFFF17
:10028000FFFEFDFAF4C8906080000000000000004E
:10029000000000000000000000000000000000005E
:1002A000000000000000000000000000308CF3FCA3
:1002B000FFFFFFFFFFFFFFFFFFFFFFFFFF0FF30C3D
:1002C000030000000000E00CE2F9FEFFFFFFFFFF6B
:1002D0003F3F3F3F3F3F3F07171717171717272F7E
:1002E0005FBF7FFFFFFFFFFFFF7F7FBF4E300F002D
:1002F000000080C040B8C6F8FFFFFFFFFFFFFFFF10
:10030000FFFFFFFFFFFFFFFEF8E3186000000000A3
:1003100000000000000000000000000000000000DD
:1003200000000000000000000000FE00F8FFFFFFDA
:10033000FFFFFFFFFFFFFFFFFFFFFFFFF900FF00D1
:100340000000000000007F807FFFFFFFFFFFFFFF36
:100350009F9F9F9F9F9F9F001F0000000000808025
:1003600040A0C0EAF5F5F5F6F6F6F5F2FAFAFAF875
:10037000FDFDFEFEFFFFFFFFFFFFFFFFFFFFFFFF93
:10038000FFFFFFFFFFFFFFFFFFFFFF000000000078
:10039000000000000000000000000000000000005D
:1003A000000000000000000000000F00873FFFFF7A
:1003B000FFFFFFFFFFFFFFFFFFFFFFFFFFFFFCF35C
:1003C000EC902040800000030419274FBF7F7FFF7F
:1003D000FFFFFFFFFFFFFFFCFDFDFDFDFDFDFCFE40
:1003E000FFFFFFFFFFFFFFFFFFFFFFFFFFFFFFFF1D
:1003F000FFFFFFFFFFFFFFFFFFFFFFFFFFFFFFFF0D
:10040000FFFFFFFFFFFFFFFFFFFF1FC00000000017
:1004100000000000000000000000000000000000DC
:1004200000000000000000000000000001020D13A9
:100430002F5FBF3F7FFFFFFFFFFFFFFFFFFFFFFFBC
:10044000FFFFFFFFFEFDF9FAF4F4E8E8E0014202E5
:10045000050B0B17172F2F2F4F5F5F5F5F5F5F5FDE
:100460005F5F5F5F5F5F5F9FBF3F7FFFFFFFFFFFDC
:10047000FFFFFFFFFFFFFFFFFFFFFFFFFFFFFFFF8C
:10048000FFFFFF7FBF9F4F271B04030000000000FA
:10049000000000000000000000000000000000005C
:1004A000000000000000000000000000000000004C
:1004B00000000001010205050B0B0B17171717179A
:1004C0001717171717170B0B0B0505020201000072
:1004D000000000000000000000000000000000001C
:1004E0000000000000000000000101020205010BF5
:1004F0000B1317171717171717171717130B0B01CE
:1005000005040201000000000000000000000000DF
:1005100000000000000000000000000000000000DB
:1005200000000000387C7C7C7C7CFCFCFCFCFC003B
:1005300000000000000000000000000000000000BB
:10054000FCFCFCFCFC0000000000000000000000BF
:10055000000080808080800000000000000000001B
:1005600000387C7C7C7C7C7C7C7C7C7C7C7C7C7C8B
:100570007C7CFCFCF8F8F0E080000000000000004B
:1005800000C0E0E0E0E0E0E0FCFEFEFEFEFEFEFE7D
:10059000FCE0E0E0E0E0E0C000000000000000005F
:1005A00000000000000000000000FFFFFFFFFF0050
:1005B000000000000000000000000000000000003B
:1005C000FFFFFFFFFF000000000000000000000030
:1005D0000000FFFFFFFFFF00000000000000000020
:1005E0000080C0C0E0E0E0E0E0E0E0E0E0E0E0E08B
:1005F000E0E0F0F9FFFF7F3F0F0000000000000087
:1006000000F7F7F7F7F7F7F7F7F7F7F7F7F7F7F771
:10061000F7F7F7F7F7F7F7F7000000000000000022
:1006200080808080808080808080FFFFFFFFFF804F
:1006300080808080808080800000000000000000BA
:10064000071F3F7F7FFCF8F0F0F0F0F0F0F0F0F0E3
:10065000F0F0FFFFFFFFFFF0F0F06000000000FC93
:10066000FFFFFFFFFF838181818181818181818102
:1006700081818181808080000000000000000000F6
:1006800000FBFBFBFBFBFBFBFBFBFBFBFBFBFBFBB5
:10069000FBFBFBFBFBFBFBFB00000000000000077B
:1006A0000F0F0F0F0F0F0F0F0F0F0F0F0F0F0F0F5A
:1006B0000F0F0F0F0F0F0F0F0700000000000000BB
:1006C000000000000000000000000000000000002A
:1006D00000000F0F0F0F0F00000000000000000FC0
:1006E0000F0F0F0F0F0F0F0F0F0F0F0F0F0F0F0F1A
:1006F0000F0F0F0F0F0F0F0700000000000000008A
:1007000000FDFDFDFDFDFDFDFDFDFDFDFDFDFDFD16
:10071000FDFDFDFDFDFDFDFD0000000000000000F1
:1007200000000000000000000000000000000000C9
:1007300000000000000000000000000000000000B9
:100740000000FEFE80C06030100000F0F0201010AD
:10075000F0E0201010F0E0000000000000000000B9
:100760000000000000000000000000000000000089
:100770000000000000000000000000000000000079
:10078000007E7E7E7E7E7E7E7E7E7E7E7E7E7E7E07
:100790007E7E7E7E7E7E7E7E000000000000000069
:1007A0000000000000000000000000000000000049
:1007B0000000000000000000000000000000000039
:1007C00000000F0F010103060C08000F0F000000CE
:1007D0000F0F0000000F0F000000000000000000DD
:1007E0000000000000000000000000000000000009
:1007F00000000000000000000000000000000000F9
:1008000000BFBFBFBFBFBFBFBFBFBFBFBFBFBFBFB7
:10081000BFBFBFBFBFBFBFBF00000000000000E000
:10082000F81C040602020202020202020202020292
:100830000202020202020202020202020202020298
:100840000202020202020202020202020202020288
:100850000202020202020202020202020202020278
:100860000202020202020202020202020202020268
:100870000202020206041CF8E00000000000000072
:1008800000DFDFDFDFDFDFDFDFDFDFDFDFDFDFDF57
:10089000DFDFDFDFDFDFDFDF00000000000000015F
:1008A000070E081810101010101010101010101053
:1008B0001010101010101010101010101010101038
:1008C0001010101010101010101010101010101028
:1008D0001010101010101010101010101010101018
:1008E0001010101010101010101010101010101008
:1008F0001010101018080E07010000000000000082
:1009000000070F0F0F0F0F0F0F0F0F0F0F0F0F0F0E
:100910000F0F0F0F0F0F0F07000000000000000067
:1009200000000000387C7C7C7C7CFCFCFCFCFC0037
:1009300000000000000000000000000000000000B7
:10094000FCFCFCFCFC0000000000000000000000BB
:100950000000808080808000000000000000000017
:1009600000387C7C7C7C7C7C7C7C7C7C7C7C7C7C87
:100970007C7CFCFCF8F8F0E0800000000000000047
:1009800000C0E0E0E0E0E0E0FCFEFEFEFEFEFEFE79
:10099000FCE0E0E0E0E0E0C000000000000000005B
:1009A00000000000000000000000FFFFFFFFFF004C
:1009B0000000000000000000000000000000000037
:1009C000FFFFFFFFFF00000000000000000000002C
:1009D0000000FFFFFFFFFF0000000000000000001C
:1009E0000080C0C0E0E0E0E0E0E0E0E0E0E0E0E087
:1009F000E0E0F0F9FFFF7F3F0F0000000000000083
:100A000000F7F7F7F7F7F7F7F7F7F7F7F7F7F7F76D
:100A1000F7F7F7F7F7F7F7F700000000000000001E
:100A200080808080808080808080FFFFFFFFFF804B
:100A300080808080808080800000000000000000B6
:100A4000071F3F7F7FFCF8F0F0F0F0F0F0F0F0F0DF
:100A5000F0F0FFFFFFFFFFF0F0F06000000000FC8F
:100A6000FFFFFFFFFF8381818181818181818181FE
:100A700081818181808080000000000000000000F2
:100A800000FBFBFBFBFBFBFBFBFBFBFBFBFBFBFBB1
:100A9000FBFBFBFBFBFBFBFB000000000000000777
:100AA0000F0F0F0F0F0F0F0F0F0F0F0F0F0F0F0F56
:100AB0000F0F0F0F0F0F0F0F0700000000000000B7
:100AC0000000000000000000000000000000000026
:100AD00000000F0F0F0F0F00000000000000000FBC
:100AE0000F0F0F0F0F0F0F0F0F0F0F0F0F0F0F0F16
:100AF0000F0F0F0F0F0F0F07000000000000000086
:100B000000FDFDFDFDFDFDFDFDFDFDFDFDFDFDFD12
:100B1000FDFDFDFDFDFDFDFD0000000000000000ED
:100B200000000000000000000000000000000000C5
:100B300000000000000000000000000000000000B5
:100B40000000FEFE80C06030100000F0F0201010A9
:100B5000F0E0201010F0E0000000000000000000B5
:100B60000000000000000000000000000000000085
:100B70000000000000000000000000000000000075
:100B8000007E7E7E7E7E7E7E7E7E7E7E7E7E7E7E03
:100B90007E7E7E7E7E7E7E7E000000000000000065
:100BA0000000000000000000000000000000000045
:100BB0000000000000000000000000000000000035
:100BC00000000F0F010103060C08000F0F000000CA
:100BD0000F0F0000000F0F000000000000000000D9
:100BE0000000000000000000000000000000000005
:100BF00000000000000000000000000000000000F5
:100C000000BFBFBFBFBFBFBFBFBFBFBFBFBFBFBFB3
:100C1000BFBFBFBFBFBFBFBF00000000000000E0FC
:100C2000F8FCFCFEFEFEFEFEFEFEFEFEFEFEFEFEEE
:100C3000FEFEFEFEFEFEFEFEFEFEFEFEFEFEFEFED4
:100C4000FEFEFEFEFEFEFEFEFEFEFEFEFEFEFEFEC4
:100C5000FEFEFEFEFEFEFEFEFEFEFEFEFEFE0202AC
:100C60000202020202020202020202020202020264
:100C70000202020206041CF8E0000000000000006E
:100C800000DFDFDFDFDFDFDFDFDFDFDFDFDFDFDF53
:100C9000DFDFDFDFDFDFDFDF00000000000000015B
:100CA000070F0F1F1F1F1F1F1F1F1F1F1F1F1F1F8C
:100CB0001F1F1F1F1F1F1F1F1F1F1F1F1F1F1F1F44
:100CC0001F1F1F1F1F1F1F1F1F1F1F1F1F1F1F1F34
:100CD0001F1F1F1F1F1F1F1F1F1F1F1F1F1F101042
:100CE0001010101010101010101010101010101004
:100CF0001010101018080E0701000000000000007E
:100D000000070F0F0F0F0F0F0F0F0F0F0F0F0F0F0A
:100D10000F0F0F0F0F0F0F07000000000000000063
:100D200000000000387C7C7C7C7CFCFCFCFCFC0033
:100D300000000000000000000000000000000000B3
:100D4000FCFCFCFCFC0000000000000000000000B7
:100D50000000808080808000000000000000000013
:100D600000387C7C7C7C7C7C7C7C7C7C7C7C7C7C83
:100D70007C7CFCFCF8F8F0E0800000000000000043
:100D800000C0E0E0E0E0E0E0FCFEFEFEFEFEFEFE75
:100D9000FCE0E0E0E0E0E0C0000000000000000057
:100DA00000000000000000000000FFFFFFFFFF0048
:100DB0000000000000000000000000000000000033
:100DC000FFFFFFFFFF000000000000000000000028
:100DD0000000FFFFFFFFFF00000000000000000018
:100DE0000080C0C0E0E0E0E0E0E0E0E0E0E0E0E083
:100DF000E0E0F0F9FFFF7F3F0F000000000000007F
:100E000000F7F7F7F7F7F7F7F7F7F7F7F7F7F7F769
:100E1000F7F7F7F7F7F7F7F700000000000000001A
:100E200080808080808080808080FFFFFFFFFF8047
:100E300080808080808080800000000000000000B2
:100E4000071F3F7F7FFCF8F0F0F0F0F0F0F0F0F0DB
:100E5000F0F0FFFFFFFFFFF0F0F06000000000FC8B
:100E6000FFFFFFFFFF8381818181818181818181FA
:100E700081818181808080000000000000000000EE
:100E800000FBFBFBFBFBFBFBFBFBFBFBFBFBFBFBAD
:100E9000FBFBFBFBFBFBFBFB000000000000000773
:100EA0000F0F0F0F0F0F0F0F0F0F0F0F0F0F0F0F52
:100EB0000F0F0F0F0F0F0F0F0700000000000000B3
:100EC0000000000000000000000000000000000022
:100ED00000000F0F0F0F0F00000000000000000FB8
:100EE0000F0F0F0F0F0F0F0F0F0F0F0F0F0F0F0F12
:100EF0000F0F0F0F0F0F0F07000000000000000082
:100F000000FDFDFDFDFDFDFDFDFDFDFDFDFDFDFD0E
:100F1000FDFDFDFDFDFDFDFD0000000000000000E9
:100F200000000000000000000000000000000000C1
:100F300000000000000000000000000000000000B1
:100F40000000FEFE80C06030100000F0F0201010A5
:100F5000F0E0201010F0E0000000000000000000B1
:100F60000000000000000000000000000000000081
:100F70000000000000000000000000000000000071
:100F8000007E7E7E7E7E7E7E7E7E7E7E7E7E7E7EFF
:100F90007E7E7E7E7E7E7E7E000000000000000061
:100FA0000000000000000000000000000000000041
:100FB0000000000000000000000000000000000031
:100FC00000000F0F010103060C08000F0F000000C6
:100FD0000F0F0000000F0F000000000000000000D5
:100FE0000000000000000000000000000000000001
:100FF00000000000000000000000000000000000F1
:1010000000BFBFBFBFBFBFBFBFBFBFBFBFBFBFBFAF
:10101000BFBFBFBFBFBFBFBF00000000000000E0F8
:10102000F8FCFCFEFEFEFEFEFEFEFEFEFEFEFEFEEA
:10103000FEFEFEFEFEFEFEFEFEFEFEFEFEFEFEFED0
:10104000FEFEFEFEFEFE0202020202020202020298
:101050000202020202020202020202FEFEFE02027C
:101060000202020202020202020202020202020260
:101070000202020206041CF8E0000000000000006A
:1010800000DFDFDFDFDFDFDFDFDFDFDFDFDFDFDF4F
:10109000DFDFDFDFDFDFDFDF000000000000000157
:1010A000070F0F1F1F1F1F1F1F1F1F1F1F1F1F1F88
:1010B0001F1F1F1F1F1F1F1F1F1F1F1F1F1F1F1F40
:1010C0001F1F1F1F1F1F10101010101010101010C6
:1010D00010101010101010101010101F1F1F1010E3
:1010E0001010101010101010101010101010101000
:1010F0001010101018080E0701000000000000007A
:1011000000070F0F0F0F0F0F0F0F0F0F0F0F0F0F06
:101110000F0F0F0F0F0F0F0700000000000000005F
:1011200000000000387C7C7C7C7CFCFCFCFCFC002F
:1011300000000000000000000000000000000000AF
:10114000FCFCFCFCFC0000000000000000000000B3
:10115000000080808080800000000000000000000F
:1011600000387C7C7C7C7C7C7C7C7C7C7C7C7C7C7F
:101170007C7CFCFCF8F8F0E080000000000000003F
:1011800000C0E0E0E0E0E0E0FCFEFEFEFEFEFEFE71
:10119000FCE0E0E0E0E0E0C0000000000000000053
:1011A00000000000000000000000FFFFFFFFFF0044
:1011B000000000000000000000000000000000002F
:1011C000FFFFFFFFFF000000000000000000000024
:1011D0000000FFFFFFFFFF00000000000000000014
:1011E0000080C0C0E0E0E0E0E0E0E0E0E0E0E0E07F
:1011F000E0E0F0F9FFFF7F3F0F000000000000007B
:1012000000F7F7F7F7F7F7F7F7F7F7F7F7F7F7F765
:10121000F7F7F7F7F7F7F7F7000000000000000016
:1012200080808080808080808080FFFFFFFFFF8043
:1012300080808080808080800000000000000000AE
:10124000071F3F7F7FFCF8F0F0F0F0F0F0F0F0F0D7
:10125000F0F0FFFFFFFFFFF0F0F06000000000FC87
:10126000FFFFFFFFFF8381818181818181818181F6
:1012700081818181808080000000000000000000EA
:1012800000FBFBFBFBFBFBFBFBFBFBFBFBFBFBFBA9
:10129000FBFBFBFBFBFBFBFB00000000000000076F
:1012A0000F0F0F0F0F0F0F0F0F0F0F0F0F0F0F0F4E
:1012B0000F0F0F0F0F0F0F0F0700000000000000AF
:1012C000000000000000000000000000000000001E
:1012D00000000F0F0F0F0F00000000000000000FB4
:1012E0000F0F0F0F0F0F0F0F0F0F0F0F0F0F0F0F0E
:1012F0000F0F0F0F0F0F0F0700000000000000007E
:1013000000FDFDFDFDFDFDFDFDFDFDFDFDFDFDFD0A
:10131000FDFDFDFDFDFDFDFD0000000000000000E5
:1013200000000000000000000000000000000000BD
:1013300000000000000000000000000000000000AD
:101340000000FEFE80C06030100000F0F0201010A1
:10135000F0E0201010F0E0000000000000000000AD
:10136000000000000000000000000000000000007D
:10137000000000000000000000000000000000006D
:10138000007E7E7E7E7E7E7E7E7E7E7E7E7E7E7EFB
:101390007E7E7E7E7E7E7E7E00000000000000005D
:1013A000000000000000000000000000000000003D
:1013B000000000000000000000000000000000002D
:1013C00000000F0F010103060C08000F0F000000C2
:1013D0000F0F0000000F0F000000000000000000D1
:1013E00000000000000000000000000000000000FD
:1013F00000000000000000000000000000000000ED
:1014000000BFBFBFBFBFBFBFBFBFBFBFBFBFBFBFAB
:10141000BFBFBFBFBFBFBFBF00000000000000E0F4
:10142000F8FCFCFEFEFEFEFEFEFEFEFE02020202D6
:10143000020202020202020202020202020202028C
:10144000020202020202020202020202020202027C
:101450000202020202020202020202FEFEFE020278
:10146000020202020202020202020202020202025C
:101470000202020206041CF8E00000000000000066
:1014800000DFDFDFDFDFDFDFDFDFDFDFDFDFDFDF4B
:10149000DFDFDFDFDFDFDFDF000000000000000153
:1014A000070F0F1F1F1F1F1F1F1F1F1F10101010C0
:1014B000101010101010101010101010101010102C
:1014C000101010101010101010101010101010101C
:1014D00010101010101010101010101F1F1F1010DF
:1014E00010101010101010101010101010101010FC
:1014F0001010101018080E07010000000000000076
:1015000000070F0F0F0F0F0F0F0F0F0F0F0F0F0F02
:101510000F0F0F0F0F0F0F0700000000000000005B
:1015200000000000387C7C7C7C7CFCFCFCFCFC002B
:10153000000000000000000000000000000000C0EB
:10154000E0F0F8F8FC7C7C7C7C7C7C7C7C7C7C7C8B
:101550007CFCF8F8F0E0C000000000000000000093
:1015600080E0F0F8F8FC7C7C7C7C7C7C7C7C7C7C67
:101570007C7CFCF8F8F0E080000000000000000037
:1015800000C06020202020203C0602020202020649
:101590003C202020202060C000000000000000004F
:1015A00000000000000000000000FFFFFFFFFF0040
:1015B0000000000000000000000000000000FFFF2D
:1015C000FFFFFF010000000000000000000000001D
:1015D000000001FFFFFFFFFF00000000000000000F
:1015E0009FFFFFFFFFF8F0F0F0F0F0F0F0F0F0F008
:1015F000F0F0F8FFFFFFFF9F000000000000000078
:1016000000FF0008000800080008000800080008A3
:1016100000080008000800FF0000000000000000B3
:1016200080808080808080808080FFFFFFFFFF803F
:1016300080808080808080800000000000003FFF6C
:10164000FFFFFFE0C080808080808080808080807D
:1016500080C0E0FFFFFFFF3F0000000000007CFFB4
:10166000FFFFFFFFC3818181818181818181818130
:10167000818181C3FFFFFFFFFF7C000000000000AD
:1016800000FFE0E4E0E4E0E4E0E4E0E4E0E4E0E4FF
:10169000E0E4E0E4E0E4E0FF000000000000000718
:1016A0000F0F0F0F0F0F0F0F0F0F0F0F0F0F0F0F4A
:1016B0000F0F0F0F0F0F0F0F0700000000000000AB
:1016C000010307070F0F0F0F0F0F0F0F0F0F0F0F54
:1016D0000F0F0707030100000000000000000001D9
:1016E0000307070F0F0F0F0F0F0F0F0F0F0F0F0F26
:1016F0000F0F0F0F0F07070301000000000000008D
:1017000000FDFDFDFDFDFDFDFDFDFDFDFDFDFDFD06
:10171000FDFDFDFDFDFDFDFD0000000000000000E1
:1017200000000000000000000000000000000000B9
:1017300000000000000000000000000000000000A9
:101740000000FEFE80C06030100000F0F02010109D
:10175000F0E0201010F0E0000000000000000000A9
:101760000000000000000000000000000000000079
:101770000000000000000000000000000000000069
:10178000007E7E7E7E7E7E7E7E7E7E7E7E7E7E7EF7
:101790007E7E7E7E7E7E7E7E000000000000000059
:1017A0000000000000000000000000000000000039
:1017B0000000000000000000000000000000000029
:1017C00000000F0F010103060C08000F0F000000BE
:1017D0000F0F0000000F0F000000000000000000CD
:1017E00000000000000000000000000000000000F9
:1017F00000000000000000000000000000000000E9
:1018000000BFBFBFBFBFBFBFBFBFBFBFBFBFBFBFA7
:10181000BFBFBFBFBFBFBFBF00000000000000E0F0
:10182000F81C040602020202020202020202020282
:101830000202020202020202020202020202020288
:101840000202020202020202020202020202020278
:101850000202020202020202020202020202020268
:101860000202020202020202020202020202020258
:101870000202020206041CF8E00000000000000062
:1018800000DFDFDFDFDFDFDFDFDFDFDFDFDFDFDF47
:10189000DFDFDFDFDFDFDFDF00000000000000014F
:1018A000070E081810101010101010101010101043
:1018B0001010101010101010101010101010101028
:1018C0001010101010101010101010101010101018
:1018D0001010101010101010101010101010101008
:1018E00010101010101010101010101010101010F8
:1018F0001010101018080E07010000000000000072
:1019000000070F0F0F0F0F0F0F0F0F0F0F0F0F0FFE
:101910000F0F0F0F0F0F0F07000000000000000057
:1019200000000000000000000000000000000000B7
:1019300000FCFCFCFCFC7C7C7C7C7C7C7C7C7C7CE3
:101940007C7C7C7CFCFCFCFCFCFC78000000000047
:101950000000FCFCFCFCFC7C7C7C7C7C7C7C7C7C3F
:101960007C7CFCF8F8F0E080000000000000000043
:101970000000000000000000000000000000000067
:1019800000C06020202020203C0602020202020645
:101990003C202020202060C000000000000000004B
:1019A0000000000000000000000000000000000037
:1019B0000001030303010000000000000080C0E0FC
:1019C000F0F8FEFF3F1F0F070100000000000000BD
:1019D00000000103030301000000E0F0F0F0F0F06C
:1019E000F0F0F8FFFFFFFF9F000000000000000084
:1019F00000000000000000000000000000000000E7
:101A000000FF00080008000800080008000800089F
:101A100000080008000800FF0000000000000000AF
:101A200000000000000000000000000000000000B6
:101A300000000000000000000000F0FCFEFFFF1F9F
:101A4000070301000000000000000000000000008B
:101A50000080808080808080808080818181818101
:101A6000818183C7FFFFFFFFFF7C000000000000B3
:101A70000000000000000000000000000000000066
:101A800000FF00040004000400040004000400043B
:101A900000040004000400FF00000000000000003B
:101AA0000000000000000000000000000000000036
:101AB000000000000000000000000F0F0F0F0F00DB
:101AC0000000000000000000000000000000000016
:101AD000070F0F0F0F0F0F0F0F0F0F0F0F0F0F0F1E
:101AE0000F0F0F0F0F070703010000000000000099
:101AF00000000000000000000000000000000000E6
:101B000000FF0002000200020002000200020002C8
:101B100000020002000200FF0000000000000000C0
:101B200000000000000000000000000000000000B5
:101B300000000000000000000000000000000000A5
:101B40000000FEFE80C06030100000F0F020101099
:101B5000F0E0201010F0E0000000000000000000A5
:101B60000000000000000000000000000000000075
:101B70000000000000000000000000000000000065
:101B8000007F78797879787978797879787978793F
:101B9000787978797879787F00000000000000007B
:101BA0000000000000000000000000000000000035
:101BB0000000000000000000000000000000000025
:101BC00000000F0F010103060C08000F0F000000BA
:101BD0000F0F0000000F0F000000000000000000C9
:101BE00000000000000000000000000000000000F5
:101BF00000000000000000000000000000000000E5
:101C000000BFBFBFBFBFBFBFBFBFBFBFBFBFBFBFA3
:101C1000BFBFBFBFBFBFBFBF00000000000000E0EC
:101C2000F81C04060202020202020202020202027E
:101C30000202020202020202020202020202020284
:101C40000202020202020202020202020202020274
:101C50000202020202020202020202020202020264
:101C60000202020202020202020202020202020254
:101C70000202020206041CF8E0000000000000005E
:101C800000DFDFDFDFDFDFDFDFDFDFDFDFDFDFDF43
:101C9000DFDFDFDFDFDFDFDF00000000000000014B
:101CA000070E08181010101010101010101010103F
:101CB0001010101010101010101010101010101024
:101CC0001010101010101010101010101010101014
:101CD0001010101010101010101010101010101004
:101CE00010101010101010101010101010101010F4
:101CF0001010101018080E0701000000000000006E
:101D000000070F0F0F0F0F0F0F0F0F0F0F0F0F0FFA
:101D10000F0F0F0F0F0F0F07000000000000000053
:101D200000000000000000000000000000000000B3
:101D300000000000000000000000000000000000A3
:101D400000C0E0F0F8F8FC7C7C7C7C7C7C7C7C7CBB
:101D50007C7C7CFCF8F8F0E0C00000000000000093
:101D60000000000000000000000000000000000073
:101D70000000000000000000000000000000000063
:101D800000C0E0E0E0E0E0E0FCFEFEFEFEFEFEFE65
:101D9000FCE0E0E0E0E0E0C0000000000000000047
:101DA0000000000000000000000000000000000033
:101DB0000000000000000000000000000000000023
:101DC000FFFFFFFFFF010000000000000000000017
:101DD0000000000001FFFFFFFFFF00000000000007
:101DE00000000000000000000000000000000000F3
:101DF00000000000000000000000000000000000E3
:101E000000F7F7F7F7F7F7F7F7F7F7F7F7F7F7F759
:101E1000F7F7F7F7F7F7F7F700000000000000000A
:101E200000000000000000000000000000000000B2
:101E300000000000000000000000000000000000A2
:101E40003FFFFFFFFFE0C080808080808080808037
:101E5000808080C0E0FFFFFFFF3F00000000000027
:101E60000000000000000000000000000000000072
:101E70000000000000000000000000000000000062
:101E800000FBFBFBFBFBFBFBFBFBFBFBFBFBFBFB9D
:101E9000FBFBFBFBFBFBFBFB00000000000000006A
:101EA0000000000000000000000000000000000032
:101EB0000000000000000000000000000000000022
:101EC0000000010307070F0F0F0F0F0F0F0F0F0F6A
:101ED0000F0F0F0F070703010000000000000000B4
:101EE00000000000000000000000000000000000F2
:101EF00000000000000000000000000000000000E2
:101F000000FDFDFDFDFDFDFDFDFDFDFDFDFDFDFDFE
:101F1000FDFDFDFDFDFDFDFD0000000000000000D9
:101F200000000000000000000000000000000000B1
:101F30000000000000001CFCE000C0F01C1CF0C011
:101F400000E0FC1C0000000000C0E0781E0600005D
:101F50000080E07C1C7CE080000000FEFE20101071
:101F600010F0E00000000000000000000000000091
:101F70000000000000000000000000000000000061
:101F8000007E7E7E7E7E7E7E7E7E7E7E7E7E7E7EEF
:101F90007E7E7E7E7E7E7E7E000000000000000051
:101FA0000000000000000000000000000000000031
:101FB00000000000000000010F0E030000000003FD
:101FC0000E0F01000000303C0F0301000000000074
:101FD0000C0F03010101030F0C00000F0F000000A4
:101FE000000F0F00000000000000000000000000D3
:101FF00000000000000000000000000000000000E1
:1020000000BFBFBFBFBFBFBFBFBFBFBFBFBFBFBF9F
:10201000BFBFBFBFBFBFBFBF00000000000000E0E8
:10202000F81C04060202020202020202020202027A
:102030000202020202020202020202020202020280
:102040000202020202020202020202020202020270
:102050000202020202020202020202020202020260
:102060000202020202020202020202020202020250
:102070000202020206041CF8E0000000000000005A
:1020800000DFDFDFDFDFDFDFDFDFDFDFDFDFDFDF3F
:10209000DFDFDFDFDFDFDFDF000000000000000147
:1020A000070E08181010101010101010101010103B
:1020B0001010101010101010101010101010101020
:1020C0001010101010101010101010101010101010
:1020D0001010101010101010101010101010101000
:1020E00010101010101010101010101010101010F0
:1020F0001010101018080E0701000000000000006A
:1021000000070F0F0F0F0F0F0F0F0F0F0F0F0F0FF6
:102110000F0F0F0F0F0F0F0700000000000000004F
:1021200000000000000000000000000000000000AF
:10213000FCFCFCFCFC7C7C7C7C7C7C7C7C7C7C7C5F
:102140007C7C7C7C7C7C7C7C380000000000000077
:102150000080E0F0F8F8FC7C7C7C7C7C7C7C7C7CE7
:102160007C7C7CFCF8F8F0E08000000000000000BF
:10217000000000000000000000000000000000005F
:1021800000C0E0E0E0E0E0E0FCFEFEFEFEFEFEFE61
:10219000FCE0E0E0E0E0E0C0000000000000000043
:1021A000000000000000000000000000000000002F
:1021B0000F3F7FFFFFF8F0F0F0F0F0F0F0F0F0F0FC
:1021C000F0F0F0F0E0E0C08000000000000000004F
:1021D000009FFFFFFFFFF8F0F0F0F0F0F0F0F0F0FC
:1021E000F0F0F0F8FFFFFFFF9F000000000000008C
:1021F00000000000000000000000000000000000DF
:1022000000F7F7F7F7F7F7F7F7F7F7F7F7F7F7F755
:10221000F7F7F7F7F7F7F7F7000000000000000006
:1022200000000000000000000000000000000000AE
:102230000000000080818181818181818181818193
:10224000818181C3FFFFFFFF7E0000000000007C52
:10225000FFFFFFFFFFC381818181818181818181B6
:1022600081818181C3FFFFFFFFFF7C000000000030
:10227000000000000000000000000000000000005E
:1022800000FBFBFBFBFBFBFBFBFBFBFBFBFBFBFB99
:10229000FBFBFBFBFBFBFBFB000000000000000066
:1022A000000000000000000000000000000000002E
:1022B000000000070F0F0F0F0F0F0F0F0F0F0F0F63
:1022C0000F0F0F0F070703010000000000000000C0
:1022D000010307070F0F0F0F0F0F0F0F0F0F0F0F38
:1022E0000F0F0F0F0F0F0707030100000000000082
:1022F00000000000000000000000000000000000DE
:1023000000FDFDFDFDFDFDFDFDFDFDFDFDFDFDFDFA
:10231000FDFDFDFDFDFDFDFD0000000000000000D5
:1023200000000000000000000000000000000000AD
:102330000000000000001CFCE000C0F01C1CF0C00D
:1023400000E0FC1C0000000000C0E0781E06000059
:102350000080E07C1C7CE080000000FEFE2010106D
:1023600010F0E0000000000000000000000000008D
:10237000000000000000000000000000000000005D
:10238000007E7E7E7E7E7E7E7E7E7E7E7E7E7E7EEB
:102390007E7E7E7E7E7E7E7E00000000000000004D
:1023A000000000000000000000000000000000002D
:1023B00000000000000000010F0E030000000003F9
:1023C0000E0F01000000303C0F0301000000000070
:1023D0000C0F03010101030F0C00000F0F000000A0
:1023E000000F0F00000000000000000000000000CF
:1023F00000000000000000000000000000000000DD
:1024000000BFBFBFBFBFBFBFBFBFBFBFBFBFBFBF9B
:10241000BFBFBFBFBFBFBFBF00000000000000E0E4
:10242000F8FCFCFEFEFEFEFEFEFEFEFEFEFEFEFED6
:10243000FEFEFEFEFEFEFEFEFEFEFEFEFEFEFEFEBC
:10244000FEFEFEFEFEFEFEFEFEFEFEFEFEFEFEFEAC
:10245000FEFEFEFEFEFEFEFEFEFEFEFEFEFE020294
:10246000020202020202020202020202020202024C
:102470000202020206041CF8E00000000000000056
:1024800000DFDFDFDFDFDFDFDFDFDFDFDFDFDFDF3B
:10249000DFDFDFDFDFDFDFDF000000000000000143
:1024A000070F0F1F1F1F1F1F1F1F1F1F1F1F1F1F74
:1024B0001F1F1F1F1F1F1F1F1F1F1F1F1F1F1F1F2C
:1024C0001F1F1F1F1F1F1F1F1F1F1F1F1F1F1F1F1C
:1024D0001F1F1F1F1F1F1F1F1F1F1F1F1F1F10102A
:1024E00010101010101010101010101010101010EC
:1024F0001010101018080E07010000000000000066
:1025000000070F0F0F0F0F0F0F0F0F0F0F0F0F0FF2
:102510000F0F0F0F0F0F0F0700000000000000004B
:1025200000000000000000000000000000000000AB
:1025300000000000387C7C7C7C7CFCFCFCFCFCFC0F
:10254000000000000000000000000000000000008B
:10255000F8FCFCFCF8000000000000000000000097
:1025600000000080808000000000000000000000EB
:10257000000000000000000000000000000000005B
:1025800000C0E0E0E0E0E0E0FCFEFEFEFEFEFEFE5D
:10259000FCE0E0E0E0E0E0C000000000000000003F
:1025A000000000000000000000000000000000002B
:1025B00000000000000000000000FFFFFFFFFFFF21
:1025C000000000000000000000000000000000000B
:1025D000FFFFFFFFFF000000000000000000000000
:1025E0000000FFFFFFFFFF000000000000000000F0
:1025F00000000000000000000000000000000000DB
:1026000000F7F7F7F7F7F7F7F7F7F7F7F7F7F7F751
:10261000F7F7F7F7F7F7F7F7000000000000000002
:1026200000000000000000000000000000000000AA
:1026300080808080808080808080FFFFFFFFFFFFA0
:10264000808080808080808000000000000000008A
:10265000071F3F7F7FFCF8F8F8F8F8F8F8F8F8F86B
:10266000F8F8FFFFFFFFFFF8F8F870000000000027
:10267000000000000000000000000000000000005A
:1026800000FBFBFBFBFBFBFBFBFBFBFBFBFBFBFB95
:10269000FBFBFBFBFBFBFBFB000000000000000062
:1026A0000000000000000000000000000000000723
:1026B0000F0F0F0F0F0F0F0F0F0F0F0F0F0F0F0F2A
:1026C0000F0F0F0F0F0F0F0F07000000000000008B
:1026D00000000000000000000000000000000000FA
:1026E00000000F0F0F0F0F0000000000000000009F
:1026F00000000000000000000000000000000000DA
:1027000000FDFDFDFDFDFDFDFDFDFDFDFDFDFDFDF6
:10271000FDFDFDFDFDFDFDFD0000000000000000D1
:1027200000000000000000000000000000000000A9
:102730000000000000001CFCE000C0F01C1CF0C009
:1027400000E0FC1C0000000000C0E0781E06000055
:102750000080E07C1C7CE080000000FEFE20101069
:1027600010F0E00000000000000000000000000089
:102770000000000000000000000000000000000059
:10278000007E7E7E7E7E7E7E7E7E7E7E7E7E7E7EE7
:102790007E7E7E7E7E7E7E7E000000000000000049
:1027A0000000000000000000000000000000000029
:1027B00000000000000000010F0E030000000003F5
:1027C0000E0F01000000303C0F030100000000006C
:1027D0000C0F03010101030F0C00000F0F0000009C
:1027E000000F0F00000000000000000000000000CB
:1027F00000000000000000000000000000000000D9
:1028000000BFBFBFBFBFBFBFBFBFBFBFBFBFBFBF97
:10281000BFBFBFBFBFBFBFBF00000000000000E0E0
:10282000F8FCFCFEFEFEFEFEFEFEFEFEFEFEFEFED2
:10283000FEFEFEFEFEFE0202020202020202020290
:102840000202020202020202020202020202020268
:102850000202020202020202020202FEFEFE020264
:102860000202020202020202020202020202020248
:102870000202020206041CF8E00000000000000052
:1028800000DFDFDFDFDFDFDFDFDFDFDFDFDFDFDF37
:10289000DFDFDFDFDFDFDFDF00000000000000013F
:1028A000070F0F1F1F1F1F1F1F1F1F1F1F1F1F1F70
:1028B0001F1F1F1F1F1F10101010101010101010BE
:1028C0001010101010101010101010101010101008
:1028D00010101010101010101010101F1F1F1010CB
:1028E00010101010101010101010101010101010E8
:1028F0001010101018080E07010000000000000062
:1029000000070F0F0F0F0F0F0F0F0F0F0F0F0F0FEE
:102910000F0F0F0F0F0F0F070000000000FFFFFF4A
:10292000FFFFFFFFFFFFFFFFFFFFFFFFFFFFFFFFB7
:10293000FFFFFFFFFFFFFFFFFFFFFFFFFFFFFFFFA7
:10294000FFFFFFFFFFFFFFFFFFFFFFFFFFFFFFFF97
:10295000FFFFFFFFFFFFFFFFFFFFFFFFFFFFFFFF87
:10296000FFFFFFFFFFFFFFFFFFFFFFFFFFFFFFFF77
:10297000FFFFFFFFFFFFFFFFFFFFFFFFFFFFFFFF67
:10298000FFFFFFFFFFFFFFFFFFFFFFFFFFFFFFFF57
:10299000FFFFFFFFFFFFFFFFFFFFFFFFFFFFFFFF47
:1029A000FFFFFFFFFFFFFFFFFFFFFFFFFFFFFFFF37
:1029B000FFFFFFFFFFFFFFFFFFFFFFFFFFFFFFFF27
:1029C000FFFFFFFFFFFFFFFFFFFFFFFFFFFFFFFF17
:1029D000FFFFFFFFFFFFFFFFFFFFFFFFFFFFFFFF07
:1029E000FFFFFFFFFFFFFFFFFFFFFFFFFFFFFFFFF7
:1029F000FFFFFFFFFFFFFFFFFFFFFFFFFFFFFFFFE7
:102A0000FFFFFFFFFFFFFFFFFFFFFFFFFFFFFFFFD6
:102A1000FFFFFFFFFFFFFFFFFFFFFFFFFFFFFFFFC6
:102A2000FFFFFFFFFFFFFFFFFFFFFFFFFFFFFFFFB6
:102A3000FFFFFFFFFFFFFFFFFFFFFFFFFFFFFFFFA6
:102A4000FFFFFFFFFFFFFFFFFFFFFFFFFFFFFFFF96
:102A5000FFFFFFFFFFFFFFFFFFFFFFFFFFFFFFFF86
:102A6000FFFFFFFFFFFFFFFFFFFFFFFFFFFFFFFF76
:102A7000FFFFFFFFFFFFFFFFFFFFFFFFFFFFFFFF66
:102A8000FFFFFFFFFFFFFFFFFFFFFFFFFFFFFFFF56
:102A9000FFFFFFFFFFFFFFFFFFFFFFFFFFFFFFFF46
:102AA000FFFFFFFFFFFFFFFFFFFFFFFFFFFFFFFF36
:102AB000FFFFFFFFFFFFFFFFFFFFFFFFFFFFFFFF26
:102AC000FFFFFFFFFFFFFFFFFFFFFFFFFFFFFFFF16
:102AD000FFFFFFFFFFFFFFFFFFFFFFFFFFFFFFFF06
:102AE000FFFFFFFFFFFFFF0FFFFFFFFFFFFFFF7F66
:102AF000BFEFEFCFBF7FFFFF0FEFFFFFFFEFFFFF46
:102B0000FFAFEFFFFFEF6FFFFFFFFFEFDF3FFFFFC5
:102B1000FFFFFFFFFFFFFFFFFFFFFFFFFFFFFFFFC5
:102B2000FFFFFFFFFFFFFFFFFFFFFFFFFFFFFFFFB5
:102B3000FFFFFFFFFFFFFFFFFFFFFFFFFFFFFFFFA5
:102B4000FFFFFFFFFFFFFFFFFFFFFFFFFFFFFFFF95
:102B5000FFFFFFFFFFFFFFFFFFFFFFFFFFFFFFFF85
:102B6000FFFFFFFFFFFFFFFCFDFDFDFDFDFFFFFC85
:102B7000FEFEFEFEFEFCFFFFFCFFFFFFFFFDFFFF72
:102B8000FFFDFFFFFFFFFCFFFFFFFFFDFEFFFFFF5D
:102B9000FFFFFFFFFFFFFFFFFFFFFFFFFFFFFFFF45
:102BA000FFFFFFFFFFFFFFFFFFFFFFFFFFFFFFFF35
:102BB000FFFFFFFFFFFFFFFFFFFFFFFFFFFFFFFF25
:102BC000FFFFFFFFFFFFFFFFFFFFFFFFFFFFFFFF15
:102BD000FFFFFFFFFFFFFFFFFFFFFFFFFFFFFFFF05
:102BE000FFFFFFFFFFFFFFFFFFFFFFFFFFFFFFFFF5
:102BF000FFFFFFFFFFFFFFFFFFFFFFFFFFFFFFFFE5
:102C0000FFFFFFFFFFFFFFFFFFFFFFFFFFFFFFFFD4
:102C1000FFFFFFFFFFFFFFFFFFFFFFFFFFFFFFFFC4
:102C2000FFFFFFFFFFFFFFFFFFFFFFFFFFFFFFFFB4
:102C3000FFFFFFFFFFFFFFFFFFFFFFFFFFFFFFFFA4
:102C4000FFFFFFFFFFFFFFFFFFFFFFFFFFFFFFFF94
:102C5000FFFFFFFFFFFFFFFFFFFFFFFFFFFFFFFF84
:102C6000FFFFFFFFFFFFFFFFFFFFFFFFFFFFFFFF74
:102C7000FFFFFFFFFFFFFFFFFFFFFFFFFFFFFFFF64
:102C8000FFFFFFFFFFFFFFFFFFFFFFFFFFFFFFFF54
:102C9000FFFFFFFFFFFFFFFFFFFFFFFFFFFFFFFF44
:102CA000FFFFFFFFFFFFFFFFFFFFFFFFFFFFFFFF34
:102CB000FFFFFFFFFFFFFFFFFFFFFFFFFFFFFFFF24
:102CC000FFFFFFFFFFFFFFFFFFFFFFFFFFFFFFFF14
:102CD000FFFFFFFFFFFFFFFFFFFFFFFFFFFFFFFF04
:102CE000FFFFFFFFFFFFFFFFFFFFFFFFFFFFFFFFF4
:102CF000FFFFFFFFFFFFFFFFFFFFFFFFFFFFFFFFE4
:102D0000FFFFFFFFFFFFFFFFFFFFFFFFFFFFFFFFD3
:102D1000FFFFFFFFFFFFFFFFFFFFFFFFFF000000C0
:102D200000000000000000000000000000000000A3
:102D30000000000000000000000000000000000093
:102D400000000080804040A0A0A0D0D0C0E8E8E80B
:102D5000E0F4F4F4F4F4F0F0F8F8F8F8F8F8F8F82F
:102D6000F8F0F0F4F4F4F4F4F0E0E8E8E8D0D0D0CF
:102D7000A0A0A040408080000000000000000000F3
:102D80000000000000000000000000000000000043
:102D90000000000000000000000000000000000033
:102DA0000000000000000000000000000000000023
:102DB0000000000000000080C040A0D0C8E8F4F28D
:102DC000FAFDFDFEFEFFFFFFFFFFFFFFFF7F7F7F9E
:102DD000BFBFBFBF1FDFDFDFDF5F5F5F5F4F5F5FD3
:102DE0005F5FDFDFDF5F1FBFBFBFBF7F7F7FFFFF93
:102DF000FFFFFFFFFFFEFEFDFDFAF2F4E8C8D0A0E2
:102E00004080000000000000000000000000000002
:102E100000000000000000000000000000000000B2
:102E200000000000000000000000000000000000A2
:102E3000804020D0ECF2F9FCFEFFFFFFFFFFFFFF18
:102E4000FFFF3F9F4F2F170B0B05058242A1D1E9D2
:102E5000E4F4FAF8FDFCFEFEFEFFFFFFFFFFFFFFBC
:102E6000FFFFFEFEFEFDFDFAFAF4E8D1A141820269
:102E700005050B13376F9F7FFFFFFFFFFFFFFFFF6E
:102E8000FFFEFDFAF4E89020C00000000000000002
:102E90000000000000000000000000000000000032
:102EA000000000000000000000000000006018E6C4
:102EB000F9FEFFFFFFFFFFFFFFFFFFFFFFFF1FE721
:102EC00019060100000000C018C4F3FCFFFFFFFF5B
:102ED000FF7F7F7F7F7F7F7F0F2F2F2F2F2F2F4F02
:102EE0005FBF7FFFFFFFFFFFFFFFFFFF7F9C611EB4
:102EF000000000008080718CF1FFFFFFFFFFFFFFEB
:102F0000FFFFFFFFFFFFFFFFFCF1C630C000000026
:102F100000000000000000000000000000000000B1
:102F20000000000000000000000000FC00F0FFFFB7
:102F3000FFFFFFFFFFFFFFFFFFFFFFFFFFF300FFAC
:102F400000000000000000FF00FFFFFFFFFFFFFF89
:102F5000FF3E3E3E3E3E3E3E003E00000000000082
:102F600000804180D5EBEBEBEDEDECEAE5F4F4F419
:102F7000F0FAFAFDFDFEFFFFFFFFFFFFFFFFFFFF7F
:102F8000FFFFFFFFFFFFFFFFFFFFFFFE000000004E
:102F90000000000000000000000000000000000031
:102FA00000000000000000000000001F000F7FFF75
:102FB000FFFFFFFFFFFFFFFFFFFFFFFFFFFFFEF928
:102FC000E6D82040800000000708334F9F7FFFFFB6
:102FD000FFFFFFFFFFFFFFFFF8FAFAFAFAFAFAF92C
:102FE000FDFEFFFFFFFFFFFFFFFFFFFFFFFFFFFFF4
:102FF000FFFFFFFFFFFFFFFFFFFFFFFFFFFFFFFFE1
:10300000FFFFFFFFFFFFFFFFFFFFFF3F800000000C
:1030100000000000000000000000000000000000B0
:103020000000000000000000000000000003041B7E
:10303000275FBF7F7FFFFFFFFFFFFFFFFFFFFFFF58
:10304000FFFFFFFEFEFDFAF2F4E8E8D0D0C10284F3
:10305000050B17172F2F5F5F5F9FBFBFBFBFBFBF9E
:10306000BFBFBFBFBFBFBFBF3F7F7FFFFFFFFFFF30
:10307000FFFFFFFFFFFFFFFFFFFFFFFFFFFFFFFF60
:10308000FFFFFFFFFF7F3F9F4F3709060100000052
:103090000000000000000000000000000000000030
:1030A0000000000000000000000000000000000020
:1030B000000000010202050B0B1717172F2F2F2FEF
:1030C0002F2F2F2F2F2F2F1717170B0B0505020050
:1030D00000000000000000000000000000000000F0
:1030E00000000000000000000101020205050B03C2
:1030F0001717272F2F2F2F2F2F2F2F2F2F27171750
:10310000030B09050201010000000000000000009F
:1031100000000000000000000000000000000000AF
:1031200000000000000000E0F0E0800000000080EF
:10313000C000E0F8F8C0000000000000000000003F
:10314000000000000000000000000000000000007F
:103150000000000000000000000080C0C00000006F
:10316000000000000000000000000000000000005F
:10317000000000000000000000000000000000004F
:1031800000000080F0FCF800C0C08000000080E07B
:10319000F0F0C0000000000000000000000000008F
:1031A0000000000020FCF9F3E7CF9F3F7EFCF0EF2A
:1031B000DFBF7C33079F0FCCE080E0E080E0C00001
:1031C0000080C0600000000000000000000000005F
:1031D00000001038F8C0F00000001F7F3BFC1E020A
:1031E0000080E0F8D8480000000000000000000067
:1031F000000000000000C080800000C0C0A0E0A06F
:10320000C0E0460F0F133D3E9FCFF7F87C7EBFDF37
:10321000CFF7F1FC7C00000000000000000000007F
:1032200000000000063C397B7BF7F7F7EFEEEEFF7E
:10323000FFFFFF8098BBFFFEFFFFFFCFBF3F7F7FF9
:103240003F7F7CFCF8381000008080000000000008
:1032500080C0C0F0A0E1A1E3D0A0E0A0E0A3E0E046
:10326000D0A4E2F1C0E0F0C0C0C0000000000080C7
:103270000000003070F8F87F7F7F7F7F3FBFCFFF77
:10328000FFFFFEFFBB9880FFFFFFFFEEEFF7F7F7B2
:10329000737B79BC1E0400000000000000000000E9
:1032A000008000008081070F1E1EDEDEDEDDDFED08
:1032B000FFFFFFFFFFFFFFFFFFFFFFFFFFFFFFFF1E
:1032C000FFFEFCFCFCFCDE8F8687070707FF91FFF3
:1032D000FFFFFFFFFF3F1FCF1F7FCF1F7F3F8FEFFE
:1032E0003F0F6F8F8FFFEFFFFFFFFF916E0F0F07F5
:1032F000078E8EDEFCFCF8FCFEFFFFFFFFFFFFFFEA
:10330000FFFFFFFFFFFFFFFFFFEFEFDDDFDEDEDE92
:103310001F1F0F0380C0000080800000000000001D
:10332000030F1E1FBFBFFFFFFEFEFC793303038B9D
:10333000D9DDDECEE7F7FFFFFFFFFFFF7F3F3B1B3F
:103340000707070707E3E3E3737F3F0228172C7F94
:10335000FFFFFFFFFDFCFEFEFEFCFDFEF8FEFFFC96
:10336000FEFFFCFCFFFFFFFFFFFF7F280F11043F64
:103370007FF3E3E3E707070F0707173B7F7FFFFFB5
:10338000FFFFFFFFF7E7CEDEDDD98B03033939FC02
:10339000FEFFFFFFFF9F1F1F0B0300000000000048
:1033A0000000000000010307070F0E0C0E0EAFFF18
:1033B000FFFFFFFFFF7F3F0F177BFCFEFFFFFE7C41
:1033C00018000000000303010000000000000000DE
:1033D0000000030183C2B1C3000303C00301020361
:1033E00010E1C3C003000301020000000000000060
:1033F000000001030700000000107CFEFFFFFEFC40
:103400007B170F1F7FFFFFFFFFFFFFEF0F0E0C0E5D
:103410000707070101000000000000000000000095
:10342000000000000000000000008097FFFFFF0F79
:103430000707030101000000000C070F0F0F0C1C11
:1034400058F878F0F0E0C0800000000000000000B4
:10345000000000090D0F030000001F0FFEFF7800A1
:10346000000103030F060000000000000000000040
:10347000000080C0C0E0F0F8F87818180F0F0F0FA8
:103480000C00000000000103030707FFFFFFDF80BF
:1034900080000000000000000000000000000000AC
:1034A000000000000000000000010B0F0F0F1F1CA8
:1034B00018000000000000000000000000000000F4
:1034C00000000000000000000000000000000000FC
:1034D00000000000000000000000000000000000EC
:1034E00000000000000000000000000000000000DC
:1034F00000000000000000000000000000000000CC
:10350000000000000000000000181C1E0F0F0F0F2D
:1035100001000000000000000000000000000000AA
:10352000000000000000000000000000000000009B
:1035300000000000808040F0F8FCFEFEFEFEFEFE73
:10354000FEFEFEFEFEFEFEFEFEFEFEFEFEFEFEFE9B
:10355000FEFEFEFEFEFEFEFEFEFEFEFEFEFEFEFE8B
:10356000FEFEFEFEFEFEFEFEFEFEFEFEFEFEFEFE7B
:10357000FEFEFEFEFEFEFEFEFEFEFEFEFEFCFCF875
:10358000E0008000000000000000000000000000DB
:10359000000000000000000000000000000000002B
:1035A00000000000000000000040C0C060B0F0EC6F
:1035B00028ECFCFFFFFFFDFFFFFFFFFFFFFFFFFF0A
:1035C000FFFFFFFFFFFFFFFF7F3F1F0F1F1F1F3F7B
:1035D0007FFFFF9F0F1F1F1FFFFFFFFFFFFFFF7FEB
:1035E0003F1F1F0F1FFFFF7F3F1F1F0F9F1F8F1FBB
:1035F0001F0F1F1F3FFFFFD7FFFFFFFFFFFFFFFF53
:10360000FFFFFEFFFEF8D0D058F0E0C08080808041
:1036100000000000000000000000000000000000AA
:103620000000000000000000005ADE5BFBF65FEDCA
:10363000A5FFFFFFFFFFFFFFFFFFFFFFFFFFFFFFF4
:10364000FFFFFFFFFF3F0F01000000787C780000C4
:103650000001071F7EF8E0800001071F3F0F0100F7
:1036600080C0F0FE3F070300008080040F0707477B
:10367000C0C0E0F0F0FFFFFFFFFFFFFFFFFFFFFF15
:10368000FFFFFFFFFFFEDA4B5A5EF7FFD6ADBDB47A
:10369000000000000000000000000000000000002A
:1036A0000000000000000000096B7A6BDDFEFFB532
:1036B000B5FFFFFFFFFFFFFFFFFFFFFFFFFFFFFF64
:1036C000FFFFFFE3E0E0E0F0F8FCFCFCFCFCFCFCAE
:1036D000FCF0F0E0E0E1EFFFFCF0C08000E0E8FC8F
:1036E000FFFFE5E0E0F0F0F8FFFFFFFCF0E0E0E0D6
:1036F000E3FFFFFFFFFFFFFFFFFFFFFFFFFFFFFFF6
:10370000FFFF7FFFFFFFFF6B6B6BFEBDDBF7B4D7E7
:1037100000000000000000000000000000000000A9
:10372000000000000000000029ED6BADFFFBB7D6E4
:10373000FFFFFFFFF20E7FFFFFFFFFFFFFFFFFFF17
:10374000FFFFFFFFFFFFFFFFFFFFFFFFFFFFFFFF89
:10375000FFFFFFFFFFFFFFFFFFFFFFFFFFFFFFFF79
:10376000FFFFFFFFFFFFFFFFFFFFFFFFFFFFFFFF69
:10377000FFFFFFFFFFFFFFFFFFFFFFFFFFFFFFFF59
:10378000FFFF0001FFFFFFEDADADFBDEEB5ED6F608
:1037900042000000000000000000000000000000E7
:1037A00000000000000000000D0D0D0603010000E8
:1037B00000010307EFDF9EDE9EBEBEFEFEFEFDFEA5
:1037C000FEFCFDFCFDFCFDFDFCFDFDFCFDFDFDF931
:1037D000FDF9FDF9FDFCF9FDF8FDFCF9FDF9FCF939
:1037E000FCFDF9F9F9F9FDF8FDF9FDF8FDFDF8FD2D
:1037F000F9FDFCFDFCFDFDFCFDFDFCFDFCFD3CBE02
:103800003CBE9E0F0F070101000101070F0B1A1BA1
:103810000A0000000000000000000000000000009E
:103820000000000000000000000000000000000098
:103830000000000001070F1F3F3F3F3F7F7F7F7F5A
:103840007F7FFFFF7F7FFFFFFF3F7FFFFF7F7F7F48
:10385000FFFF7F7F7F7FFF7F7F7FFFFF7F7F7FFF78
:10386000FF7F7F7FFFFF7F7F7F7FFFFF7F7F3FFFA8
:10387000FF7F7F3FFFFF7F7FFFFF7F7F7F7F3F1FB8
:103880000F0F030000000000000000000000000017
:103890000000000000000000000000000000000028
:1038A0000000000000000000000000000000000018
:1038B0000000000000000000000000000000000008
:1038C0000020333F1D28213F3F1000773F1E00405E
:1038D000773F3E00006B7F7D0000767F7500006FB4
:1038E0007F6A00006E7F6C0000387F7F41003C3FA4
:1038F0007F41003E7F6B003E3F6F60000000000094
:1039000000000000000000000000000000000000B7
:1039100000000000000000000000000000000000A7
:103920000000000000000000000000000080F0F82F
:10393000F8F8F8F8F8F8F8F8F8F8F8F8F8E080008F
:103940000000001878F8F8F8F8F8F8F8F8F8F8F83F
:10395000F8E000000000000000000000000000008F
:10396000000000000080F0F8F8F8F8F8F8F8F8F82F
:10397000F8F8F878080000000080F0F8F8F8F8F897
:10398000F8F8F8F8F8F8F8F8F8F8F8F8F8F8F8F8B7
:10399000F0F0F0E0C08058A8FC2CFCCC78000000CF
:1039A0000000000000000000000080F0FCFFFFFFAE
:1039B000FFFFFFFFFFFFFFFFFFFFFFFFFFFFFFFC1A
:1039C000F0C0000000030F3FFFFFFFFFFFFFFFFFFE
:1039D000FFFFFFFCE080000000000000000000008E
:1039E000000080F0FCFFFFFFFFFFFFFFFFFFFFFF76
:1039F0001F0F01000000C0F0FEFFFFFFFFFFFFFFF1
:103A0000FFFF7F7F1F0F1F1F1F1F1F7FFFFFFFFF76
:103A1000FFFFFFFFFFFFFFFCF101010000000000BE
:103A200000000000000000C0F0FEFFFFFFFFFFFFEE
:103A3000FFFFFFFF3F03073FFFFFFFFFFFFFFFFF0A
:103A4000FFFFFEF8C000000001073FFFFFFFFFFF80
:103A5000FFFFFFFFFFFFFCF080000000000000C040
:103A6000F0FEFFFFFFFFFFFFFFFFFFFFFF0F07015C
:103A7000000080E0F8FFFFFFFFFFFFFFFFFFFFFFF9
:103A80009F0F018000008080C0C0E0F0FFFFFFFFBB
:103A9000FFFFFFFFFFFFFF7F3F000000000000006F
:103AA0000000000080F0FEFFFFFFFFFFFFFFFFFFB1
:103AB000FF1F0F000000000000073FFFFFFFFFFF98
:103AC000FFFFFFFFFFFFFCE080000000070F7FFF0C
:103AD000FFFFFFFFFFFFFFFFFFFCF080E0F8FEFFAE
:103AE000FFFFFFFFFFFFFFFFFF7F0F0100000080D0
:103AF000F0FCFFFFFFFFFFFFFFFFFFFFFFFFFFFFE8
:103B0000FFFFFFFFFFFFFFFFFFFFFFFFFFFFFF7F45
:103B10003F3F1F0F0F0701000000000000000000E2
:103B20000080F8FEFFFFFFFFFFFFFFFFFFFFFFFF2B
:103B3000FFFEFEFEFEFEFEFEFEFEFEFEFFFFFFFFA0
:103B4000FFFFFFFFFFFFFFFFFFFEF0C000000003CD
:103B50000F7FFFFFFFFFFFFFFFFFFFFFFFFFFFFFE5
:103B6000FFFFFFFFFFFF1F0701000000C0F0FEFF87
:103B7000FFFFFFFFFFFFFFFFFFFF3F070303031FE1
:103B8000FFFFFFFFFFFFFFFFFFFFFFFCE000000064
:103B90000000000000000000000000000000C0F86D
:103BA000FEFFFFFFFFFFFFFFFFFFFFFF1F070707EE
:103BB0000707070707070707070707070707070795
:103BC0000F7FFFFFFFFFFFFFFFFFFFFFFEF8C000BB
:103BD000000001071FFFFFFFFFFFFFFFFFFFFFFFC9
:103BE000FFFF3F1F0300000080E0F8FFFFFFFFFF23
:103BF000FFFFFFFFFFFFFF0F0700000000000000B6
:103C0000011FFFFFFFFFFFFFFFFFFFFFFFFFF8C0E8
:103C10000000000000000000000000000006070790
:103C2000070707070707070707070300000000004B
:103C30000000000000000000000000000000000084
:103C40000000030707070707070707070707070716
:103C5000040000000000031F7FFFFFFFFFFFFF3F86
:103C60000F01000000000004070707070707070708
:103C70000707070707010000000000000000000020
:103C800000000107070707070707070707070707D8
:103C9000060000000000000000000000000000001E
:103CA0000000000000000000000000000000000014
:103CB0000000000000000000000000000000000004
:103CC00000000000000000000000000000000000F4
:103CD000000000000000000000010F3F1F0700006F
:103CE00000000000000000000000000000000000D4
:103CF00000000000000000000000000000000000C4
:103D000000000000000000000000000000000000B3
:103D100000000000000000000000000000FFFFFFA6
:103D2000FFFFFFFFFFFFFFFFFFFFFFFFFFFFFFFEA4
:103D3000FDDEFEDAE63A65CFAAFDDA7FFBD7EDBB02
:103D40005EEB5E6FB557FFD5FFDFB57F6DDFAB1F55
:103D5000F5DFFFFB77ED4F032F3F7FFFFE7DE11582
:103D6000FFFF32C4FDFFFF7F9F1D0323DFFDE7DE62
:103D70005BC637041DA2CDDA942492000A100055C8
:103D8000005BA00420800400010214020C0000006B
:103D90000000A7BB6FFF5BF73FFBD7BFFFFFFFFF35
:103DA000FFFFFFFFFFFFFFFFFFFFFFFFFFFFFFFA28
:103DB000BF56FFFDA3FFDEBBB66DCF235C77EF3AA6
:103DC00005A50D010912460B372F5F9E3A400109E8
:103DD00032FFFFFFDD4100C4000101D3A75F7E5722
:103DE000EBFFD5273F73E2800000000011FEFFFFCC
:103DF000A90500018C1E1BA7840000010000000023
:103E00000004011400000100200000000000000078
:103E10000010224CB927D926DD225E55567FFFFFC0
:103E2000FFFFFFFFFFFFFFFFFFFFFFFFFFFFFFFFA2
:103E3000FBEF7EFFFEFBEADDFED8F2F9FA3C311C17
:103E40000814ECFEFE8F2FAFDEBFFEF7DF874FFEBC
:103E50003EFDFFF7CA002204094205912EC552EA31
:103E600075AF7E69CB1045010108000980F37BDC4A
:103E70003ECF5FE7EFE753B3430303BFFEFE00040B
:103E800008181C18A8C080000000050F02040008D4
:103E90000008022842A409A21C9115A215EFBBEF4D
:103EA000BF7FFFFFFFFFFFFFFFFFFFFDFFFFFFFFE4
:103EB000FFFFFFFFF7FFFFFFDFFF7FFEFD6CE8A0C6
:103EC000C080810F3F7FFCFDF2F7FBE7FDEBF9FBC4
:103ED000FEFFFFFFFFFFFA80000052A4052A5DFDF0
:103EE000D7FDBBE600020000000020FEFFFFFFFA46
:103EF000FCE9FAF5FBE2F9F2F9FCFE3F1F07C0000E
:103F0000E000000000050100000000000000000AC1
:103F100000002400AA00229C21C812C411FFFEFF49
:103F2000B56FFDFFF7FFFFFFFFFFFFFFFFFFFFFF85
:103F3000FFFFFFFFFFFFFFFFFFFFFFFBF7FFBEFBE2
:103F4000B66FFFED5EF4ACA8D9E3BBE343E7C7C7A8
:103F500007C7AFBFFFFFFFFEE098E1FAFBF7DABF4C
:103F60006BFFBE2D1040000000C0B2FFD73F4703DB
:103F70000703C3C387E32BD9ABD42E19172701023C
:103F800000040200000000000000000000200020EB
:103F900040A950D424CB28D324D32C55A95FFFF7B4
:103FA000FF7FFFFFF7FFFFFFFFFFFFFFFFF7FFFFB1
:103FB000FFFFFFBBFFFFFFF7FFEFFF6F7FFFC53F77
:103FC000ED1B4203244B54AF7F9F3F5FBF3DAFFFCC
:103FD00057CE150117077FDFFFFFFFFFFFF3EEBD91
:103FE000EB5AE59D40C10402EC5AF72ECB22850125
:103FF0001F2A072E0F1F0F0302012000A0A0800020
:104000000800000000000000800020DB2AD4AD2260
:10401000DCB30455AC53A6A946B9C5BE6A43FFFF3D
:10402000FF7FEDFFFFFFFFFFFFEFEFFFFFFFFFFF52
:10403000FFFDFEFAFF6EDB375F37DF3FDF7AE7EE2B
:1040400059F6E5BAC041E4EDC001429302075EB5FE
:10405000AF10000090A05EB835E3CDA3FFD7FFFFFF
:10406000FFFFF3EFFEFDE0A26F3F040004E0C0405D
:104070001020100000A00034135BC919FCC0824E50
:10408000CAC4CC900050DCB23CF22C41C08109572C
:10409000244FEA0459F2A5FE823CCB3DEB0F3BEFE7
:1040A000BFDFFE1B77DFFFFFFF357FFFFF3F7FFF97
:1040B000BF7FBF6F7FDF3CE9B240950A4306BDA7D3
:1040C000FDFFFFFCB3F4C75B873F0E080200000052
:1040D000000100C0BAE610C4A040A103A6C78F5FCC
:1040E000BF3F7F3F4FCF01010040000000040000B0
:1040F00000D050BE336142C1C6AE9422CCB35FF74C
:104100002DFEE847B8FFC903FFAF1A3ED025C8DA35
:104110008126FCECBBFE57F5DFBBFFFCFBF7AFBB1A
:10412000CFDBEFCDFBD7E5FBF5F5FBDDFDEAFEDEF2
:10413000F7EEDFEDEFEDFFF5DFB7FBFBF779FF7D86
:104140007B7A7DFE79EFFCBF7CFDAE7EDEB76EDF55
:10415000BF67DF7FDFBF7FFFFFFFFFFFFFFFFFFFC7
:10416000FFFFFFFFFFFFFFFFDFFBF7DDF52A1E0666
:10417000010200000000000000000000000000003C
:10418000000000000000000000000000000000002F
:1041900000000000145021C62DA97FD67FFFFFFD2F
:1041A000FFFFFFFFFFFFFFFFFFFFFFFFFFFFFFFF1F
:1041B000FFADDB5F425F9F275FBF71EFFDFAFDFB45
:1041C0007CFBFCF9F2BCFAFCF1F46A5288012A0289
:1041D0000502050B0A010B0A230FFF7FFFFFFFFFFC
:1041E000FFFFFFFFFFFFFFFDFFC50B5501000000B4
:1041F000000000000000000000000000008080803F
:1042000080808000800000000000000000000000AE
:1042100000000000000000000000030003FFFFFF9B
:10422000FFFFFFFFFFFFFFFFFFFFFFFFFFFFFFFF9E
:10423000EFFF1E450A0014011401050B170F3B0781
:104240002F96070B030A0104010400000000000080
:104250000000000000000000000035EBFFFFBF136E
:104260007FFFFFFFFFFFFFFFFFFFFDDEB8FAE8E083
:104270008040002000000800000B01510520E0E014
:10428000F060F0F0E0D0E080A080000000000000CE
:1042900000000000000000000000000000FFFFFF21
:1042A000FFFFFFFFFFFFFFFFFFFFFFFFFFFFFF1FFE
:1042B00003000000000000000000000000000000FB
:1042C00000000000000000000000000000000000EE
:1042D00000000000000000000000032EFFFFAA61A4
:1042E000BDEFFE7FFFFFFFFFFFFFFFFFFFFFFFFFB1
:1042F0003F5FBE4800000000000000000100060310
:104300000508010503030101000000000000000092
:1043100000000000000000000000000000FFFFFFA0
:10432000FFFFFFFFFFFFFFFFFFFFFFFFFFFFE1803A
:1043300080000080C0C06040C00000200000000479
:10434000100000000000000000000000000000005D
:1043500000000000000000008000A068B3ADB5F6CA
:10436000DFFF57FF2DFBFFFFFFFFFFFFFFFFFF03F7
:1043700041020400000000000000000000000000F6
:10438000000000000000000000000000000000002D
:1043900000000000000000000000000000FFFFFF20
:1043A000FFFFFFFFFFFFFFFFFFFFFFFFFFFFFFFF1D
:1043B000FFFFFEFEFEFC8C089080800080808080E5
:1043C00080808080C0C0C08000000000000000002D
:1043D000800048D0A058249A248519A2028C239DDD
:1043E00022CDBAD5F5FFFFFFFFFFFFFFFFFFFFFE66
:1043F000E0C8B020E0C0C88C081800100000000021
:1044000000000000000000000000000000000000AC
:104410000000000000000000000000C080FFFFFF5F
:10442000FFFFFFFFFFFFFFFFFFFFFFFFFFFFFFFF9C
:10443000FFFFFFFFFFFFFFFFFFEFFBE7DBE1C9A18E
:1044400009018000000000010002C420A8B06E58DD
:104450001F67830C409300044004D094F0E6F8FFFB
:10446000FAFFFEFFFFFFFFFFFFFFFFFFFFFFFFFF62
:10447000FFFFFFFEFDF7F8F1F07070707020303034
:10448000303030408040800000000080000010800C
:1044900080C8E0E0B0D8ACECEEFEFBFBFFFFFFFF16
:1044A000FFFFFFFFFFFFFFFFFFFFFFFFFFFFFFFF1C
:1044B000FFFFFFFFFFFFFFFFFFFFFFFFFFFFC60341
:1044C0009502000001040000058800020A408124D2
:1044D000C8D2A0EAF0F4F9FEFDFEFFFFFFFFFFFFE8
:1044E000FFFFFFFFFFFFF7EFFFFFFFFFFFFFFFFDF6
:1044F000FFFBFFFFFFFFFFFFFFFFFEFFEF9E0D1A19
:104500000D1A400A31FEFBE4CED0E6ECFBF4FFFED0
:10451000FFFEF6FDFFFEFFFFFEFFFEFFFF15DA25A3
:104520004AB946A92659463A61863942B50463DC40
:10453000F2FDFFFFFFFFFFFFFFFFFFFFFFFFFFFF9A
:10454000FFFFFFFFFFFFFFFFFFFFFFFFFFFFBFDFDB
:10455000BFD71FD3051A01000400020000000001AC
:10456000000103031747870F1F2F3FFFFFFFFFFFC8
:10457000FFFFFFFFFFFEFEFDFEFCFDFEFEFFFFFF57
:10458000FFFFFFFFFFFFFFFFFFFFFFFFFFFFFFFF3B
:10459000FFFFFFFFFFFFFFFFFFFFFFFFFFAA155217
:1045A00025CA19E2053AC13502E9024DD0FFFFFFE5
:1045B000FFFFFFFFFFFFFFFFFFFFFFFFFFFFFFFF0B
:1045C000FFFFFFFFFFFFFFFFFFB76FDB162742056F
:1045D0000201840000000000000000000000000054
:1045E000000000000000000024004000FFFFFFFF6B
:1045F000FFFFFFFF7FFF1FFF2FFF5FFFFFFFFFFF9B
:10460000FFFFFFFFFFFFFFFFFFFFFFFFFFFFFFFFBA
:10461000FFFFFFFFFFFFFFFFFFFFFFFFFF893245A7
:1046200092244A29A2085225802CF1FEFFFFFFFFA9
:10463000FFFFFFFFFFFFFFFFFFFFFFFFFFFFFFFF8A
:10464000FFFFFFFF7FDFFF7FDB2594042940C118B8
:1046500000081A400D4E1C2E5E9C3E3C387870F0CF
:10466000E0E0C0C0800480000004200A1B77FF7FC8
:10467000DFA75DA3542555299295E58AAF9B279F17
:104680002F5F5FFF1F7F7FFFFFFFFFFFFFFFFFFF2A
:10469000FFFFBF7FFFFFFF7FFFFFFFFFFFA209526A
:1046A000248922481241162003DCFFFFFFFFFFFF91
:1046B000FFFFFFFFFFFFFFFFFFFFFFFFFFFFFFFF0A
:1046C000FFFF7FDF75FFD7AD5B2400A40010021051
:1046D00041000127032B474D5DD9BBB276ED7E34F7
:1046E0003D552B13271B162C0104C0E0F0FDFF5293
:1046F0009D22E4F97C9E4673C3D1E181A0C1D00024
:10470000A00041020515032C91870DB72F5FFF7F95
:10471000FDFFF7BFFDEFBFFFFBB7FFFFFF24C90A97
:1047200050144114A114419200FEFFFFFFFFFFFF50
:10473000FFFFFFFFFFFFFFFFFFFFFFFFFFBF7FFF49
:10474000EF5BDF63BD6FDA042942800001000000E7
:1047500000000000008080908240014100010000C4
:1047600002000000000000003EFFFFFFFFFFFDFB16
:10477000F4EA200510A5336F7FFF53B1219C04029A
:1047800000000000000000000000040801120429DD
:10479000031FBF3DFFF7DEFFFDE75EFFFF54244927
:1047A0009245A88A10AA0022DCFFFFFFFFFFFFFF4F
:1047B000FFFFFFFFFFFFFFFFFFFFFFFFFFFFF7BD53
:1047C0006F5AE50A59A5144344882000A230F8CC5A
:1047D000DC8E9E930A2110646060C0ADD0D0B02002
:1047E00060C080000000000081FFFF9F9F3F1F2FDF
:1047F0004100C000280008187AEDFAE0C428C08003
:1048000080008000000000000000000000000000A8
:104810000000000005035FDEBFFFFFBEFBA54AB43A
:10482000025CA005EA00E5F8FFFFFFFFFFFFFFFFC6
:10483000FFFFFFFFFFFFFFFFF7BF3FFFFFFFBFF1DE
:10484000AE114295A42B1452C409005057400003E6
:104850000303110503030202060C10291377E7EE88
:10486000FEFEFD0646020202071F7FFC80050000D7
:1048700002020C2EE6FEF2DF61EFDBE777273F76E0
:104880003FFEFDF0810080020000000000000000FB
:1048900000000000000000C419E7FFFFFF42995428
:1048A000C3144AA8EAFBFFFFFFFFFFFFFFFFFFFF64
:1048B000FFFFFFFFFFFFFF7FFF5BD69527BA6FD893
:1048C000D334E202D5AB1CF3A56AD9A11FE00528B9
:1048D0004080000000D020C0E2CA94ECBAE20000A0
:1048E000000001073C5020000000080113000400F4
:1048F0000000000001271F3FADE0F8A86C949C0663
:10490000A7812AD32F5EA812800000400000C000BB
:1049100050A0C058E0BAA45BBE56EF7FFF00000075
:104920000000000000000000000000000000000087
:104930000000000000000000000000000000000077
:104940000000000000000000000000000000000067
:104950000000000000000000000000000000000057
:104960000000000000000000000000000000000047
:104970000000000000000000000000000000000037
:104980000000000000000000000000000000000027
:104990000000000000000000000000000000000017
:1049A0000000000000000000000000000000000007
:1049B000000000000000000030180C06428484044F
:1049C00000000000000000000000000000000000E7
:1049D00000000000000000000000000000000000D7
:1049E00000000000000000000000000000000000C7
:1049F00000000000000000000000000000000000B7
:104A000000000000000000000000000000000000A6
:104A10000000000000000000000000000000000096
:104A20000000000000000000000000000000000086
:104A30000000000000000000000000000000000076
:104A40000000000000000000000000000000000066
:104A50000000000000000000000000000000000056
:104A60000000000000000000000000000000000046
:104A70000000000000000000000000000000000036
:104A80000000000000000000000000000000000026
:104A90000000000000000000000000000000000016
:104AA0000000000000000000000000000000000006
:104AB00000000000000000000000000000000000F6
:104AC00000000000000000000000000000000000E6
:104AD00000000000000000000000000000000000D6
:104AE00000000000000000000000000000000000C6
:104AF00000000000000000000000000000000000B6
:104B000000000000000000000000000000000000A5
:104B10000000000000000000000000000000000095
:104B20000000000000000000000000000000000085
:104B30000000000000000000000000000000000075
:104B40000000000000000000000000000000000065
:104B50000000000000000000000000000000000055
:104B60000000000000000000000000000000000045
:104B700000000000000000000080C060301888C005
:104B8000E0F0F8FCFCFCFCFEFFFFFFFFFFFEFEFE7A
:104B9000FCFCFCFCF8F8F8F0F0F0F0F0E0E0C0C04D
:104BA0008080800000000000000000000000000085
:104BB00000000000000000000000000000000000F5
:104BC00000000000000000000000000000000000E5
:104BD00000000000000000000000000000000000D5
:104BE00000000000000000000000000000000000C5
:104BF00000000000000000000000000000000000B5
:104C000000000000000000000000000000000000A4
:104C10000000000000000000000000000000000094
:104C20000000000000000000000000000000000084
:104C30000000000000000000000000000000000074
:104C40000000000000000000000000000000000064
:104C50000000000000000000000000000000000054
:104C60000000000000000000000000000000000044
:104C70000000000000000000000000000000000034
:104C80000000000000000000000000000000000024
:104C90000000000000000000000000000000000014
:104CA0000000000000000000000000000000000004
:104CB00000000000000000000000000000000000F4
:104CC00000000000000000000000000000000000E4
:104CD00000000000000000000000000000000000D4
:104CE00000000000000000000000000000000000C4
:104CF00000000000000000000000000000000000B4
:104D000000000000000000000000000000000000A3
:104D10000000000000000000000000000000000093
:104D20000000000000000000000000000000000083
:104D300080C0F0F0B80C0602030381C1F9810101C3
:104D40000303ECFEFFF9FCFEFEFFFFFFFFFFFFFF8A
:104D5000FFFFFFFFFFFFFFFFFFFFFFFFFFFFFFFF63
:104D6000FFFFFFFFFFFFFFFFFFFFFFFFFFFFFFFF53
:104D7000FFFFFFFEFEFCFCFCFCF8F8F8F0F0F0E0B2
:104D8000E0C0C0C080808000000000000000000083
:104D90000000000000000000000000000000000013
:104DA0000000000000000000000000000000000003
:104DB00000000000000000000000000000000000F3
:104DC00000000000000000000000000000000000E3
:104DD00000000000000000000000000000000000D3
:104DE00000000000000000000000000000000000C3
:104DF00000000000000000000000000000000000B3
:104E000000000000000000000000000000000000A2
:104E10000000000000000000000000000000000092
:104E20000000000000000000000000000000000082
:104E30000000000000000000000000000000000072
:104E40000000000000000000000000000000000062
:104E50000000000000000000000000000000000052
:104E60000000000000000000000000000000000042
:104E70000000000000000000000000000000000032
:104E80000000000000000000000000000000000022
:104E90000000000000000000000000000000000012
:104EA0000000000000000000000000000000000002
:104EB00000000000000000000000000000000000F2
:104EC00000000000000000000000000000000000E2
:104ED00000000000000000000000000000000000D2
:104EE00000000000000000000000000000000000C2
:104EF00000000080C0E06070F8FC7E3E9F9F9F3FF6
:104F00003F7E7CFCF8F8F8F8F8F8F8FCFEFFFFFFAD
:104F1000FFFFFFFFFFFFFFFFFFFFFFFFFFFFFFFFA1
:104F2000FFFFFFFFFFFFFFFFFFFFFFFFFFFFFFFF91
:104F3000FFFFFFFFFFFFFFFFFFFFFFFFFFFFFFFF81
:104F4000FFFFFFFFFFFFFFFFFFFFFFFFFFFFFFFF71
:104F5000FFFFFFFFFFFFFEFEFCFCFCF8F8F8F0F09F
:104F6000F0E0E0E0C0C0C080800000000000000071
:104F70000000000000000000000000000000000031
:104F80000000000000000000000000000000000021
:104F90000000000000000000000000000000000011
:104FA0000000000000000000000000000000000001
:104FB00000000000000000000000000000000000F1
:104FC00000000000000000000000000000000000E1
:104FD00000000000000000000000000000000000D1
:104FE00000000000000000000000000000000000C1
:104FF00000000000000000000000000000000000B1
:1050000000000000000000000000000000000000A0
:105010000000000000000000000000000000000090
:105020000000000000000000000000000000000080
:105030000000000000000000000000000000000070
:105040000000000000000000000000000000000060
:105050000000000000000000000000000000000050
:105060000000000000000000000000000000000040
:105070000000000000000000000000000000000030
:105080000000000000000000000000000000000020
:105090000000000000000000000000000000000010
:1050A0000000000000000000000000000000000000
:1050B000000000000080C0E0F0F0381C1E3FFFCF71
:1050C0008F8000989C4F7E3F1F9FF8FCF8F8FCFCF7
:1050D000FEFFFFFFFFFFFFFFFFFFFFFFFFFFFFFFE1
:1050E000FFFFFFFFFFFFFFFFFFFFFFFFFFFFFFFFD0
:1050F000FFFFFFFFFFFFFFFFFFFFFFFFFFFFFFFFC0
:10510000FFFFFFFFFFFFFFFFFFFFFFFFFFFFFFFFAF
:10511000FFFFFFFFFFFFFFFFFFFFFFFFFFFFFFFF9F
:10512000FFFFFFFFFFFFFFFFFFFFFFFFFFFFFFFF8F
:10513000FFFFFFFFFFFFFFFFFEFEFEFCFCFCF8F899
:10514000F8F0F0E0E0E0C0C0C08080800000000027
:10515000000000000000000000000000000000004F
:10516000000000000000000000000000000000003F
:10517000000000000000000000000000000000002F
:10518000000000000000000000000000000000001F
:10519000000000000000000000000000000000000F
:1051A00000000000000000000000000000000000FF
:1051B00000000000000000000000000000000000EF
:1051C00000000000000000000000000000000000DF
:1051D00000000000000000000000000000000000CF
:1051E00000000000000000000000000000000000BF
:1051F00000000000000000000000000000000000AF
:10520000000000000000000000000000000000009E
:10521000000000000000000000000000000000008E
:10522000000000000000000000000000000000007E
:10523000000000000000000000000000000000006E
:10524000000000000000000000000000000000005E
:10525000000000000000000000000000000000004E
:10526000000000000000000000000000000000003E
:1052700000000000000000000080C0E0F0F8FCDE4C
:105280000F07CFFFFFF3E02060E7F79FBF8FC5EF69
:10529000F7FFFEFEFEFFFFFFFFFFFFFFFFFFFFFF29
:1052A000FFFFFFFFFFFFFFFFFFFFFFFFFFFFFFFF0E
:1052B000FFFFFFFFFFFFFFFFFFFFFFFFFFFFFFFFFE
:1052C000FFFFFFFFFFFFFFFFFFFFFFFFFFFFFFFFEE
:1052D000FFFFFFFFFFFFFFFFFFFFFFFFFFFFFFFFDE
:1052E000FFFFFFFFFFFFFFFFFFFFFFFFFFFFFFFFCE
:1052F000FFFFFFFFFFFFFFFFFFFFFFFFFFFFFFFFBE
:10530000FFFFFFFFFFFFFFFFFFFFFFFFFFFFFFFFAD
:10531000FFFFFFFFFFFFFFFFFFFFFFFEFEFEFCFCA6
:10532000FCF8F8F0F0F0E0E0E0C0C0C080800000E1
:10533000000000000000000000000000000000006D
:10534000000000000000000000000000000000005D
:10535000000000000000000000000000000000004D
:10536000000000000000000000000000000000003D
:10537000000000000000000000000000000000002D
:10538000000000000000000000000000000000001D
:10539000000000000000000000000000000000000D
:1053A00000000000000000000000000000000000FD
:1053B00000000000000000000000000000000000ED
:1053C00000000000000000000000000000000000DD
:1053D00000000000000000000000000000000000CD
:1053E00000000000000000000000000000000000BD
:1053F00000000000000000000000000000000000AD
:10540000000000000000000000000000000000009C
:10541000000000000000000000000000000000008C
:10542000000000000000000000000000000000007C
:105430000000000000000000000000000080C0E04C
:10544000F0F8FCFE7F0383E3F73F7FF8F8F8FFFFF7
:10545000FEFFE3F3F3FBFFFFFFFFFFFFFFFFFFFF95
:10546000FFFFFFFFFFFFFFFFFFFFFFFFFFFFFFFF4C
:10547000FFFFFFFFFFFFFFFFFFFFFFFFFFFFFFFF3C
:10548000FFFFFFFFFFFFFFFFFFFFFFFFFFFFFFFF2C
:10549000FFFFFFFFFFFFFFFFFFFFFFFFFFFFFFFF1C
:1054A000FFFFFFFFFFFFFFFFFFFFFFFFFFFFFFFF0C
:1054B000FFFFFFFFFFFFFFFFFFFFFFFFFFFFFFFFFC
:1054C000FFFFFFFFFFFFFFFFFFFFFFFFFFFFFFFFEC
:1054D000FFFFFFFFFFFFFFFFFFFFFFFFFFFFFFFFDC
:1054E000FFFFFFFFFFFFFFFFFFFFFFFFFFFFFFFFCC
:1054F000FFFFFFFFFFFFFFFFFFFFFFFFFFFEFEFEBF
:10550000FCFCFCF8F8F8F0F0F0E0E0C0C0C08080EF
:10551000800000000000000000000000000000000B
:10552000000000000000000000000000000000007B
:10553000000000000000000000000000000000006B
:10554000000000000000000000000000000000005B
:10555000000000000000000000000000000000004B
:10556000000000000000000000000000000000003B
:10557000000000000000000000000000000000002B
:10558000000000000000000000000000000000001B
:10559000000000000000000000000000000000000B
:1055A00000000000000000000000000000000000FB
:1055B00000000000000000000000000000000000EB
:1055C00000000000000000000000000000000000DB
:1055D00000000000000000000000000000000000CB
:1055E00000000000000000000000000000000000BB
:1055F00000000000000000000000000000000000AB
:105600008080C0E0F0F8FCFEFF3F1F0F0FEF4F1E41
:10561000FEF4706848CFFFFFF1FDFCFFFFFFFFFFC6
:10562000FFFFFFFFFFFFFFFFFFFFFFFFFFFFFFFF8A
:10563000FFFFFFFFFFFFFFFFFFFFFFFFFFFFFFFF7A
:10564000FFFFFFFFFFFFFFFFFFFFFFFFFFFFFFFF6A
:10565000FFFFFFFFFFFFFFFFFFFFFFFFFFFFFFFF5A
:10566000FFFFFFFFFFFFFFFFFFFFFFFFFFFFFFFF4A
:10567000FFFFFFFFFFFFFFFFFFFFFFFFFFFFFFFF3A
:10568000FFFFFFFFFFFFFFFFFFFFFFFFFFFFFFFF2A
:10569000FFFFFFFFFFFFFFFFFFFFFFFFFFFFFFFF1A
:1056A000FFFFFFFFFFFFFFFFFFFFFFFFFFFFFFFF0A
:1056B000FFFFFFFFFFFFFFFFFFFFFFFFFFFFFFFFFA
:1056C000FFFFFFFFFFFFFFFFFFFFFFFFFFFFFFFFEA
:1056D000FFFFFFFFFFFFFFFFFFFFFFFFFFFFFFFFDA
:1056E000FEFEFCFCFCF8F8F8F0F0F0E0E0E0C0C0F2
:1056F000C0808000000000000000000000000000EA
:105700000000000000000000000000000000000099
:105710000000000000000000000000000000000089
:105720000000000000000000000000000000000079
:105730000000000000000000000000000000000069
:105740000000000000000000000000000000000059
:105750000000000000000000000000000000000049
:105760000000000000000000000000000000000039
:105770000000000000000000000000000000000029
:105780000000000000000000000000000000000019
:105790000000000000000000000000000000000009
:1057A00000000000000000000000000000000000F9
:1057B00000000000000000000000000000000000E9
:1057C0000000000080C0E0F0F8FCFEFFFFFFFF8754
:1057D000878787B7B7CF7E3E9E9EFEFFFDF8FEFF10
:1057E000FFFFFFFFFFFFFFFFFFFFFFFFFFFFFFFFC9
:1057F000FFFFFFFFFFFFFFFFFFFFFFFFFFFFFFFFB9
:10580000FFFFFFFFFFFFFFFFFFFFFFFFFFFFFFFFA8
:10581000FFFFFFFFFFFFFFFFFFFFFFFFFFFFFFFF98
:10582000FFFFFFFFFFFFFFFFFFFFFFFFFFFFFFFF88
:10583000FFFFFFFFFFFFFFFFFFFFFFFFFFFFFFFF78
:10584000FFFFFFFFFFFFFFFFFFFFFFFFFFFFFFFF68
:10585000FFFFFFFFFFFFFFFFFFFFFFFFFFFFFFFF58
:10586000FFFFFFFFFFFFFFFFFFFFFFFFFFFFFFFF48
:10587000FFFFFFFFFFFFFFFFFFFFFFFFFFFFFFFF38
:10588000FFFFFFFFFFFFFFFFFFFFFFFFFFFFFFFF28
:10589000FFFFFFFFFFFFFFFFFFFFFFFFFFFFFFFF18
:1058A000FFFFFFFFFFFFFFFFFFFFFFFFFFFFFFFF08
:1058B000FFFFFFFFFFFFFFFFFFFFFFFFFFFFFFFFF8
:1058C000FFFFFEFEFEFCFCFCF8F8F8F0F0E0E0E084
:1058D000C0C0C08080800000000000000000000008
:1058E00000000000000000000000000000000000B8
:1058F00000000000000000000000000000000000A8
:105900000000000000000000000000000000000097
:105910000000000000000000000000000000000087
:105920000000000000000000000000000000000077
:105930000000000000000000000000000000000067
:105940000000000000000000000000000000000057
:105950000000000000000000000000000000000047
:105960000000000000000000000000000000000037
:105970000000000000000000000000000000000027
:10598000000000000000000080C0E0F0787CFEFF16
:10599000FFFFFFFFE3C3C1C1C1E9E3BF1F2F292DF3
:1059A0003F3FBEFEFFFFFFFFFFFFFFFFFFFFFFFFC9
:1059B000FFFFFFFFFFFFFFFFFFFFFFFFFFFFFFFFF7
:1059C000FFFFFFFFFFFFFFFFFFFFFFFFFFFFFFFFE7
:1059D000FFFFFFFFFFFFFFFFFFFFFFFFFFFFFFFFD7
:1059E000FFFFFFFFFFFFFFFFFFFFFFFFFFFFFFFFC7
:1059F000FFFFFFFFFFFFFFFFFFFFFFFFFFFFFFFFB7
:105A0000FFFFFFFFFFFFFFFFFFFFFFFFFFFFFFFFA6
:105A1000FFFFFFFFFFFFFFFFFFFFFFFFFFFFFFFF96
:105A2000FFFFFFFFFFFFFFFFFFFFFFFFFFFFFFFF86
:105A3000FFFFFFFFFFFFFFFFFFFFFFFFFFFFFFFF76
:105A4000FFFFFFFFFFFFFFFFFFFFFFFFFFFFFFFF66
:105A5000FFFFFFFFFFFFFFFFFFFFFFFFFFFFFFFF56
:105A6000FFFFFFFFFFFFFFFFFFFFFFFFFFFFFFFF46
:105A7000FFFFFFFFFFFFFFFFFFFFFFFFFFFFFFFF36
:105A8000FFFFFFFFFFFFFFFFFFFFFFFFFFFFFFFF26
:105A9000FFFFFFFFFFFFFFFFFFFFFFFFFFFFFFFF16
:105AA000FFFFFFFFFFFEFEFCFCFCF8F8F8F0F0F053
:105AB000E0E0C0C0C0808080000000000000000066
:105AC0000000808080000000000000000000000056
:105AD00000000000000000000000000000000000C6
