:100000000C941B690C943A690C943A690C943A6903
:100010000C943A690C943A690C943A690C943A69D4
:100020000C943A690C94A5730C943A690C943A694F
:100030000C943A690C943A690C943A690C949F7840
:100040000C943A690C943A690C943A690C943A69A4
:100050000C943A690C943A690C943A690C943A6994
:100060000C943A690C943A690C943A690C943A6984
:100070000C943A690C943A690C943A690C943A6974
:100080000C943A690C943A690C943A690C943A6964
:100090000C94C2690C943A690C943A690C943A69CC
:1000A0000C943A690C943A690C943A690C943A6944
:1000B0000C943A690C943A690C943A690C943A6934
:1000C0000C943A690C943A690C943A690000000067
:1000D000C0E0E0E0E0E0E0FCFEFEFEFEFEFEFEFC36
:1000E000E0E0E0E0E0E0C000000000000000000010
:1000F000F7F7F7F7F7F7F7F7F7F7F7F7F7F7F7F790
:10010000F7F7F7F7F7F7F70000000000000000002E
:10011000FBFBFBFBFBFBFBFBFBFBFBFBFBFBFBFB2F
:10012000FBFBFBFBFBFBFB000000000000000000F2
:10013000FDFDFDFDFDFDFDFDFDFDFDFDFDFDFDFDEF
:10014000FDFDFDFDFDFDFD000000000000000000C4
:100150007E7E7E7E7E7E7E7E7E7E7E7E7E7E7E7EBF
:100160007E7E7E7E7E7E7E0000000000000000001D
:10017000BFBFBFBFBFBFBFBFBFBFBFBFBFBFBFBF8F
:10018000BFBFBFBFBFBFBF00000000000000000036
:10019000DFDFDFDFDFDFDFDFDFDFDFDFDFDFDFDF6F
:1001A000DFDFDFDFDFDFDF00000000000000000036
:1001B000070F0F0F0F0F0F0F0F0F0F0F0F0F0F0F57
:1001C0000F0F0F0F0F0F07000000000000000000CE
:1001D000C0E0E0E0E0E0E0FCFEFAFAFAFAFAFEFC49
:1001E000E0E0E0E0E0E0C00000000000000000000F
:1001F000F7F7F7F7F7F7F7F7F7F7F7F7F7F7F7F78F
:10020000F7F7F7F7F7F7F70000000000000000002D
:10021000FBFBFBFBFBFBFBFBFBFBFBFBFBFBFBFB2E
:10022000FBFBFBFBFBFBFB000000000000000000F1
:10023000FDFDFDFDFDFDFDFDFDFDFDFDFDFDFDFDEE
:10024000FDFDFDFDFDFDFD000000000000000000C3
:100250007E7E7E7E7E7E7E7E7E7E7E7E7E7E7E7EBE
:100260007E7E7E7E7E7E7E0000000000000000001C
:10027000BFBFBFBFBFBFBFBFBFBFBFBFBFBFBFBF8E
:10028000BFBFBFBFBFBFBF00000000000000000035
:10029000DFDFDFDFDFDFDFDFDFDFDFDFDFDFDFDF6E
:1002A000DFDFDFDFDFDFDF00000000000000000035
:1002B000070F0F0F0F0F0F0F0F0F0F0F0F0F0F0F56
:1002C0000F0F0F0F0F0F07000000000000000000CD
:1002D000C0E0E0E0E0E0E0FCF6F2F2F2F2F2F6FC80
:1002E000E0E0E0E0E0E0C00000000000000000000E
:1002F000F7F7F7F7F7F7F7F7F7F7F7F7F7F7F7F78E
:10030000F7F7F7F7F7F7F70000000000000000002C
:10031000FBFBFBFBFBFBFBFBFBFBFBFBFBFBFBFB2D
:10032000FBFBFBFBFBFBFB000000000000000000F0
:10033000FDFDFDFDFDFDFDFDFDFDFDFDFDFDFDFDED
:10034000FDFDFDFDFDFDFD000000000000000000C2
:100350007E7E7E7E7E7E7E7E7E7E7E7E7E7E7E7EBD
:100360007E7E7E7E7E7E7E0000000000000000001B
:10037000BFBFBFBFBFBFBFBFBFBFBFBFBFBFBFBF8D
:10038000BFBFBFBFBFBFBF00000000000000000034
:10039000DFDFDFDFDFDFDFDFDFDFDFDFDFDFDFDF6D
:1003A000DFDFDFDFDFDFDF00000000000000000034
:1003B000070F0F0F0F0F0F0F0F0F0F0F0F0F0F0F55
:1003C0000F0F0F0F0F0F07000000000000000000CC
:1003D000C0E0E0E0E0E0E0FCE6E2E2E2E2E2E6FCEF
:1003E000E0E0E0E0E0E0C00000000000000000000D
:1003F000F7F7F7F7F7F7F7F7F7F7F7F7F7F7F7F78D
:10040000F7F7F7F7F7F7F70000000000000000002B
:10041000FBFBFBFBFBFBFBFBFBFBFBFBFBFBFBFB2C
:10042000FBFBFBFBFBFBFB000000000000000000EF
:10043000FDFDFDFDFDFDFDFDFDFDFDFDFDFDFDFDEC
:10044000FDFDFDFDFDFDFD000000000000000000C1
:100450007E7E7E7E7E7E7E7E7E7E7E7E7E7E7E7EBC
:100460007E7E7E7E7E7E7E0000000000000000001A
:10047000BFBFBFBFBFBFBFBFBFBFBFBFBFBFBFBF8C
:10048000BFBFBFBFBFBFBF00000000000000000033
:10049000DFDFDFDFDFDFDFDFDFDFDFDFDFDFDFDF6C
:1004A000DFDFDFDFDFDFDF00000000000000000033
:1004B000070F0F0F0F0F0F0F0F0F0F0F0F0F0F0F54
:1004C0000F0F0F0F0F0F07000000000000000000CB
:1004D000C0E0E0E0E0E0E0FCC6C2C2C2C2C2C6FCCE
:1004E000E0E0E0E0E0E0C00000000000000000000C
:1004F000F7F7F7F7F7F7F7F7F7F7F7F7F7F7F7F78C
:10050000F7F7F7F7F7F7F70000000000000000002A
:10051000FBFBFBFBFBFBFBFBFBFBFBFBFBFBFBFB2B
:10052000FBFBFBFBFBFBFB000000000000000000EE
:10053000FDFDFDFDFDFDFDFDFDFDFDFDFDFDFDFDEB
:10054000FDFDFDFDFDFDFD000000000000000000C0
:100550007E7E7E7E7E7E7E7E7E7E7E7E7E7E7E7EBB
:100560007E7E7E7E7E7E7E00000000000000000019
:10057000BFBFBFBFBFBFBFBFBFBFBFBFBFBFBFBF8B
:10058000BFBFBFBFBFBFBF00000000000000000032
:10059000DFDFDFDFDFDFDFDFDFDFDFDFDFDFDFDF6B
:1005A000DFDFDFDFDFDFDF00000000000000000032
:1005B000070F0F0F0F0F0F0F0F0F0F0F0F0F0F0F53
:1005C0000F0F0F0F0F0F07000000000000000000CA
:1005D000C0E0A0A0A0A0A0BC86828282828286BC4D
:1005E000A0A0A0A0A0E0C00000000000000000004B
:1005F000F7F7F7F7F7F7F7F7F7F7F7F7F7F7F7F78B
:10060000F7F7F7F7F7F7F700000000000000000029
:10061000FBFBFBFBFBFBFBFBFBFBFBFBFBFBFBFB2A
:10062000FBFBFBFBFBFBFB000000000000000000ED
:10063000FDFDFDFDFDFDFDFDFDFDFDFDFDFDFDFDEA
:10064000FDFDFDFDFDFDFD000000000000000000BF
:100650007E7E7E7E7E7E7E7E7E7E7E7E7E7E7E7EBA
:100660007E7E7E7E7E7E7E00000000000000000018
:10067000BFBFBFBFBFBFBFBFBFBFBFBFBFBFBFBF8A
:10068000BFBFBFBFBFBFBF00000000000000000031
:10069000DFDFDFDFDFDFDFDFDFDFDFDFDFDFDFDF6A
:1006A000DFDFDFDFDFDFDF00000000000000000031
:1006B000070F0F0F0F0F0F0F0F0F0F0F0F0F0F0F52
:1006C0000F0F0F0F0F0F07000000000000000000C9
:1006D000C06020202020203C060202020202063CCC
:1006E000202020202060C00000000000000000004A
:1006F000F7F7F7F7F7F7F7F7F7F7F7F7F7F7F7F78A
:10070000F7F7F7F7F7F7F700000000000000000028
:10071000FBFBFBFBFBFBFBFBFBFBFBFBFBFBFBFB29
:10072000FBFBFBFBFBFBFB000000000000000000EC
:10073000FDFDFDFDFDFDFDFDFDFDFDFDFDFDFDFDE9
:10074000FDFDFDFDFDFDFD000000000000000000BE
:100750007E7E7E7E7E7E7E7E7E7E7E7E7E7E7E7EB9
:100760007E7E7E7E7E7E7E00000000000000000017
:10077000BFBFBFBFBFBFBFBFBFBFBFBFBFBFBFBF89
:10078000BFBFBFBFBFBFBF00000000000000000030
:10079000DFDFDFDFDFDFDFDFDFDFDFDFDFDFDFDF69
:1007A000DFDFDFDFDFDFDF00000000000000000030
:1007B000070F0F0F0F0F0F0F0F0F0F0F0F0F0F0F51
:1007C0000F0F0F0F0F0F07000000000000000000C8
:1007D000C06020202020203C060202020202063CCB
:1007E000202020202060C000000000000000000049
:1007F000F7F6F6F6F6F6F6F6F6F6F6F6F6F6F6F698
:10080000F6F6F6F6F6F6F70000000000000000002D
:10081000FBFBFBFBFBFBFBFBFBFBFBFBFBFBFBFB28
:10082000FBFBFBFBFBFBFB000000000000000000EB
:10083000FDFDFDFDFDFDFDFDFDFDFDFDFDFDFDFDE8
:10084000FDFDFDFDFDFDFD000000000000000000BD
:100850007E7E7E7E7E7E7E7E7E7E7E7E7E7E7E7EB8
:100860007E7E7E7E7E7E7E00000000000000000016
:10087000BFBFBFBFBFBFBFBFBFBFBFBFBFBFBFBF88
:10088000BFBFBFBFBFBFBF0000000000000000002F
:10089000DFDFDFDFDFDFDFDFDFDFDFDFDFDFDFDF68
:1008A000DFDFDFDFDFDFDF0000000000000000002F
:1008B000070F0F0F0F0F0F0F0F0F0F0F0F0F0F0F50
:1008C0000F0F0F0F0F0F07000000000000000000C7
:1008D000C06020202020203C060202020202063CCA
:1008E000202020202060C000000000000000000048
:1008F000F7F4F4F4F4F4F4F4F4F4F4F4F4F4F4F4B5
:10090000F4F4F4F4F4F4F700000000000000000038
:10091000FBFBFBFBFBFBFBFBFBFBFBFBFBFBFBFB27
:10092000FBFBFBFBFBFBFB000000000000000000EA
:10093000FDFDFDFDFDFDFDFDFDFDFDFDFDFDFDFDE7
:10094000FDFDFDFDFDFDFD000000000000000000BC
:100950007E7E7E7E7E7E7E7E7E7E7E7E7E7E7E7EB7
:100960007E7E7E7E7E7E7E00000000000000000015
:10097000BFBFBFBFBFBFBFBFBFBFBFBFBFBFBFBF87
:10098000BFBFBFBFBFBFBF0000000000000000002E
:10099000DFDFDFDFDFDFDFDFDFDFDFDFDFDFDFDF67
:1009A000DFDFDFDFDFDFDF0000000000000000002E
:1009B000070F0F0F0F0F0F0F0F0F0F0F0F0F0F0F4F
:1009C0000F0F0F0F0F0F07000000000000000000C6
:1009D000C06020202020203C060202020202063CC9
:1009E000202020202060C000000000000000000047
:1009F000FFF0F8F0F8F0F8F0F8F0F8F0F8F0F8F0B0
:100A0000F8F0F8F0F8F0FF0000000000000000002F
:100A1000FBFBFBFBFBFBFBFBFBFBFBFBFBFBFBFB26
:100A2000FBFBFBFBFBFBFB000000000000000000E9
:100A3000FDFDFDFDFDFDFDFDFDFDFDFDFDFDFDFDE6
:100A4000FDFDFDFDFDFDFD000000000000000000BB
:100A50007E7E7E7E7E7E7E7E7E7E7E7E7E7E7E7EB6
:100A60007E7E7E7E7E7E7E00000000000000000014
:100A7000BFBFBFBFBFBFBFBFBFBFBFBFBFBFBFBF86
:100A8000BFBFBFBFBFBFBF0000000000000000002D
:100A9000DFDFDFDFDFDFDFDFDFDFDFDFDFDFDFDF66
:100AA000DFDFDFDFDFDFDF0000000000000000002D
:100AB000070F0F0F0F0F0F0F0F0F0F0F0F0F0F0F4E
:100AC0000F0F0F0F0F0F07000000000000000000C5
:100AD000C06020202020203C060202020202063CC8
:100AE000202020202060C000000000000000000046
:100AF000FFE0E8E0E8E0E8E0E8E0E8E0E8E0E8E09F
:100B0000E8E0E8E0E8E0FF0000000000000000008E
:100B1000FBFBFBFBFBFBFBFBFBFBFBFBFBFBFBFB25
:100B2000FBFBFBFBFBFBFB000000000000000000E8
:100B3000FDFDFDFDFDFDFDFDFDFDFDFDFDFDFDFDE5
:100B4000FDFDFDFDFDFDFD000000000000000000BA
:100B50007E7E7E7E7E7E7E7E7E7E7E7E7E7E7E7EB5
:100B60007E7E7E7E7E7E7E00000000000000000013
:100B7000BFBFBFBFBFBFBFBFBFBFBFBFBFBFBFBF85
:100B8000BFBFBFBFBFBFBF0000000000000000002C
:100B9000DFDFDFDFDFDFDFDFDFDFDFDFDFDFDFDF65
:100BA000DFDFDFDFDFDFDF0000000000000000002C
:100BB000070F0F0F0F0F0F0F0F0F0F0F0F0F0F0F4D
:100BC0000F0F0F0F0F0F07000000000000000000C4
:100BD000C06020202020203C060202020202063CC7
:100BE000202020202060C000000000000000000045
:100BF000FFC0C8C0C8C0C8C0C8C0C8C0C8C0C8C07E
:100C0000C8C0C8C0C8C0FF0000000000000000004D
:100C1000FBFBFBFBFBFBFBFBFBFBFBFBFBFBFBFB24
:100C2000FBFBFBFBFBFBFB000000000000000000E7
:100C3000FDFDFDFDFDFDFDFDFDFDFDFDFDFDFDFDE4
:100C4000FDFDFDFDFDFDFD000000000000000000B9
:100C50007E7E7E7E7E7E7E7E7E7E7E7E7E7E7E7EB4
:100C60007E7E7E7E7E7E7E00000000000000000012
:100C7000BFBFBFBFBFBFBFBFBFBFBFBFBFBFBFBF84
:100C8000BFBFBFBFBFBFBF0000000000000000002B
:100C9000DFDFDFDFDFDFDFDFDFDFDFDFDFDFDFDF64
:100CA000DFDFDFDFDFDFDF0000000000000000002B
:100CB000070F0F0F0F0F0F0F0F0F0F0F0F0F0F0F4C
:100CC0000F0F0F0F0F0F07000000000000000000C3
:100CD000C06020202020203C060202020202063CC6
:100CE000202020202060C000000000000000000044
:100CF000FF8088808880888088808880888088803D
:100D0000888088808880FF000000000000000000CC
:100D1000FBFBFBFBFBFBFBFBFBFBFBFBFBFBFBFB23
:100D2000FBFBFBFBFBFBFB000000000000000000E6
:100D3000FDFDFDFDFDFDFDFDFDFDFDFDFDFDFDFDE3
:100D4000FDFDFDFDFDFDFD000000000000000000B8
:100D50007E7E7E7E7E7E7E7E7E7E7E7E7E7E7E7EB3
:100D60007E7E7E7E7E7E7E00000000000000000011
:100D7000BFBFBFBFBFBFBFBFBFBFBFBFBFBFBFBF83
:100D8000BFBFBFBFBFBFBF0000000000000000002A
:100D9000DFDFDFDFDFDFDFDFDFDFDFDFDFDFDFDF63
:100DA000DFDFDFDFDFDFDF0000000000000000002A
:100DB000070F0F0F0F0F0F0F0F0F0F0F0F0F0F0F4B
:100DC0000F0F0F0F0F0F07000000000000000000C2
:100DD000C06020202020203C060202020202063CC5
:100DE000202020202060C000000000000000000043
:100DF000FF000800080008000800080008000800BC
:100E0000080008000800FF000000000000000000CB
:100E1000FBFBFBFBFBFBFBFBFBFBFBFBFBFBFBFB22
:100E2000FBFBFBFBFBFBFB000000000000000000E5
:100E3000FDFDFDFDFDFDFDFDFDFDFDFDFDFDFDFDE2
:100E4000FDFDFDFDFDFDFD000000000000000000B7
:100E50007E7E7E7E7E7E7E7E7E7E7E7E7E7E7E7EB2
:100E60007E7E7E7E7E7E7E00000000000000000010
:100E7000BFBFBFBFBFBFBFBFBFBFBFBFBFBFBFBF82
:100E8000BFBFBFBFBFBFBF00000000000000000029
:100E9000DFDFDFDFDFDFDFDFDFDFDFDFDFDFDFDF62
:100EA000DFDFDFDFDFDFDF00000000000000000029
:100EB000070F0F0F0F0F0F0F0F0F0F0F0F0F0F0F4A
:100EC0000F0F0F0F0F0F07000000000000000000C1
:100ED000C06020202020203C060202020202063CC4
:100EE000202020202060C000000000000000000042
:100EF000FF000800080008000800080008000800BB
:100F0000080008000800FF000000000000000000CA
:100F1000FBFAFAFAFAFAFAFAFAFAFAFAFAFAFAFA30
:100F2000FAFAFAFAFAFAFB000000000000000000EA
:100F3000FDFDFDFDFDFDFDFDFDFDFDFDFDFDFDFDE1
:100F4000FDFDFDFDFDFDFD000000000000000000B6
:100F50007E7E7E7E7E7E7E7E7E7E7E7E7E7E7E7EB1
:100F60007E7E7E7E7E7E7E0000000000000000000F
:100F7000BFBFBFBFBFBFBFBFBFBFBFBFBFBFBFBF81
:100F8000BFBFBFBFBFBFBF00000000000000000028
:100F9000DFDFDFDFDFDFDFDFDFDFDFDFDFDFDFDF61
:100FA000DFDFDFDFDFDFDF00000000000000000028
:100FB000070F0F0F0F0F0F0F0F0F0F0F0F0F0F0F49
:100FC0000F0F0F0F0F0F07000000000000000000C0
:100FD000C06020202020203C060202020202063CC3
:100FE000202020202060C000000000000000000041
:100FF000FF000800080008000800080008000800BA
:10100000080008000800FF000000000000000000C9
:10101000FFF8FCF8FCF8FCF8FCF8FCF8FCF8FCF82D
:10102000FCF8FCF8FCF8FF000000000000000000E5
:10103000FDFDFDFDFDFDFDFDFDFDFDFDFDFDFDFDE0
:10104000FDFDFDFDFDFDFD000000000000000000B5
:101050007E7E7E7E7E7E7E7E7E7E7E7E7E7E7E7EB0
:101060007E7E7E7E7E7E7E0000000000000000000E
:10107000BFBFBFBFBFBFBFBFBFBFBFBFBFBFBFBF80
:10108000BFBFBFBFBFBFBF00000000000000000027
:10109000DFDFDFDFDFDFDFDFDFDFDFDFDFDFDFDF60
:1010A000DFDFDFDFDFDFDF00000000000000000027
:1010B000070F0F0F0F0F0F0F0F0F0F0F0F0F0F0F48
:1010C0000F0F0F0F0F0F07000000000000000000BF
:1010D000C06020202020203C060202020202063CC2
:1010E000202020202060C000000000000000000040
:1010F000FF000800080008000800080008000800B9
:10110000080008000800FF000000000000000000C8
:10111000FFF0F4F0F4F0F4F0F4F0F4F0F4F0F4F0A4
:10112000F4F0F4F0F4F0FF00000000000000000014
:10113000FDFDFDFDFDFDFDFDFDFDFDFDFDFDFDFDDF
:10114000FDFDFDFDFDFDFD000000000000000000B4
:101150007E7E7E7E7E7E7E7E7E7E7E7E7E7E7E7EAF
:101160007E7E7E7E7E7E7E0000000000000000000D
:10117000BFBFBFBFBFBFBFBFBFBFBFBFBFBFBFBF7F
:10118000BFBFBFBFBFBFBF00000000000000000026
:10119000DFDFDFDFDFDFDFDFDFDFDFDFDFDFDFDF5F
:1011A000DFDFDFDFDFDFDF00000000000000000026
:1011B000070F0F0F0F0F0F0F0F0F0F0F0F0F0F0F47
:1011C0000F0F0F0F0F0F07000000000000000000BE
:1011D000C06020202020203C060202020202063CC1
:1011E000202020202060C00000000000000000003F
:1011F000FF000800080008000800080008000800B8
:10120000080008000800FF000000000000000000C7
:10121000FFE0E4E0E4E0E4E0E4E0E4E0E4E0E4E093
:10122000E4E0E4E0E4E0FF00000000000000000073
:10123000FDFDFDFDFDFDFDFDFDFDFDFDFDFDFDFDDE
:10124000FDFDFDFDFDFDFD000000000000000000B3
:101250007E7E7E7E7E7E7E7E7E7E7E7E7E7E7E7EAE
:101260007E7E7E7E7E7E7E0000000000000000000C
:10127000BFBFBFBFBFBFBFBFBFBFBFBFBFBFBFBF7E
:10128000BFBFBFBFBFBFBF00000000000000000025
:10129000DFDFDFDFDFDFDFDFDFDFDFDFDFDFDFDF5E
:1012A000DFDFDFDFDFDFDF00000000000000000025
:1012B000070F0F0F0F0F0F0F0F0F0F0F0F0F0F0F46
:1012C0000F0F0F0F0F0F07000000000000000000BD
:1012D000C06020202020203C060202020202063CC0
:1012E000202020202060C00000000000000000003E
:1012F000FF000800080008000800080008000800B7
:10130000080008000800FF000000000000000000C6
:10131000FFC0C4C0C4C0C4C0C4C0C4C0C4C0C4C072
:10132000C4C0C4C0C4C0FF00000000000000000032
:10133000FDFDFDFDFDFDFDFDFDFDFDFDFDFDFDFDDD
:10134000FDFDFDFDFDFDFD000000000000000000B2
:101350007E7E7E7E7E7E7E7E7E7E7E7E7E7E7E7EAD
:101360007E7E7E7E7E7E7E0000000000000000000B
:10137000BFBFBFBFBFBFBFBFBFBFBFBFBFBFBFBF7D
:10138000BFBFBFBFBFBFBF00000000000000000024
:10139000DFDFDFDFDFDFDFDFDFDFDFDFDFDFDFDF5D
:1013A000DFDFDFDFDFDFDF00000000000000000024
:1013B000070F0F0F0F0F0F0F0F0F0F0F0F0F0F0F45
:1013C0000F0F0F0F0F0F07000000000000000000BC
:1013D000C06020202020203C060202020202063CBF
:1013E000202020202060C00000000000000000003D
:1013F000FF000800080008000800080008000800B6
:10140000080008000800FF000000000000000000C5
:10141000FF80848084808480848084808480848031
:10142000848084808480FF000000000000000000B1
:10143000FDFDFDFDFDFDFDFDFDFDFDFDFDFDFDFDDC
:10144000FDFDFDFDFDFDFD000000000000000000B1
:101450007E7E7E7E7E7E7E7E7E7E7E7E7E7E7E7EAC
:101460007E7E7E7E7E7E7E0000000000000000000A
:10147000BFBFBFBFBFBFBFBFBFBFBFBFBFBFBFBF7C
:10148000BFBFBFBFBFBFBF00000000000000000023
:10149000DFDFDFDFDFDFDFDFDFDFDFDFDFDFDFDF5C
:1014A000DFDFDFDFDFDFDF00000000000000000023
:1014B000070F0F0F0F0F0F0F0F0F0F0F0F0F0F0F44
:1014C0000F0F0F0F0F0F07000000000000000000BB
:1014D000C06020202020203C060202020202063CBE
:1014E000202020202060C00000000000000000003C
:1014F000FF000800080008000800080008000800B5
:10150000080008000800FF000000000000000000C4
:10151000FF000400040004000400040004000400B0
:10152000040004000400FF000000000000000000B0
:10153000FDFDFDFDFDFDFDFDFDFDFDFDFDFDFDFDDB
:10154000FDFDFDFDFDFDFD000000000000000000B0
:101550007E7E7E7E7E7E7E7E7E7E7E7E7E7E7E7EAB
:101560007E7E7E7E7E7E7E00000000000000000009
:10157000BFBFBFBFBFBFBFBFBFBFBFBFBFBFBFBF7B
:10158000BFBFBFBFBFBFBF00000000000000000022
:10159000DFDFDFDFDFDFDFDFDFDFDFDFDFDFDFDF5B
:1015A000DFDFDFDFDFDFDF00000000000000000022
:1015B000070F0F0F0F0F0F0F0F0F0F0F0F0F0F0F43
:1015C0000F0F0F0F0F0F07000000000000000000BA
:1015D000C06020202020203C060202020202063CBD
:1015E000202020202060C00000000000000000003B
:1015F000FF000800080008000800080008000800B4
:10160000080008000800FF000000000000000000C3
:10161000FF000400040004000400040004000400AF
:10162000040004000400FF000000000000000000AF
:10163000FFFCFEFCFEFCFEFCFEFCFEFCFEFCFEFCD9
:10164000FEFCFEFCFEFCFF000000000000000000AD
:101650007E7E7E7E7E7E7E7E7E7E7E7E7E7E7E7EAA
:101660007E7E7E7E7E7E7E00000000000000000008
:10167000BFBFBFBFBFBFBFBFBFBFBFBFBFBFBFBF7A
:10168000BFBFBFBFBFBFBF00000000000000000021
:10169000DFDFDFDFDFDFDFDFDFDFDFDFDFDFDFDF5A
:1016A000DFDFDFDFDFDFDF00000000000000000021
:1016B000070F0F0F0F0F0F0F0F0F0F0F0F0F0F0F42
:1016C0000F0F0F0F0F0F07000000000000000000B9
:1016D000C06020202020203C060202020202063CBC
:1016E000202020202060C00000000000000000003A
:1016F000FF000800080008000800080008000800B3
:10170000080008000800FF000000000000000000C2
:10171000FF000400040004000400040004000400AE
:10172000040004000400FF000000000000000000AE
:10173000FFF8FAF8FAF8FAF8FAF8FAF8FAF8FAF814
:10174000FAF8FAF8FAF8FF000000000000000000C4
:101750007E7E7E7E7E7E7E7E7E7E7E7E7E7E7E7EA9
:101760007E7E7E7E7E7E7E00000000000000000007
:10177000BFBFBFBFBFBFBFBFBFBFBFBFBFBFBFBF79
:10178000BFBFBFBFBFBFBF00000000000000000020
:10179000DFDFDFDFDFDFDFDFDFDFDFDFDFDFDFDF59
:1017A000DFDFDFDFDFDFDF00000000000000000020
:1017B000070F0F0F0F0F0F0F0F0F0F0F0F0F0F0F41
:1017C0000F0F0F0F0F0F07000000000000000000B8
:1017D000C06020202020203C060202020202063CBB
:1017E000202020202060C000000000000000000039
:1017F000FF000800080008000800080008000800B2
:10180000080008000800FF000000000000000000C1
:10181000FF000400040004000400040004000400AD
:10182000040004000400FF000000000000000000AD
:10183000FFF0F2F0F2F0F2F0F2F0F2F0F2F0F2F08B
:10184000F2F0F2F0F2F0FF000000000000000000F3
:101850007E7E7E7E7E7E7E7E7E7E7E7E7E7E7E7EA8
:101860007E7E7E7E7E7E7E00000000000000000006
:10187000BFBFBFBFBFBFBFBFBFBFBFBFBFBFBFBF78
:10188000BFBFBFBFBFBFBF0000000000000000001F
:10189000DFDFDFDFDFDFDFDFDFDFDFDFDFDFDFDF58
:1018A000DFDFDFDFDFDFDF0000000000000000001F
:1018B000070F0F0F0F0F0F0F0F0F0F0F0F0F0F0F40
:1018C0000F0F0F0F0F0F07000000000000000000B7
:1018D000C06020202020203C060202020202063CBA
:1018E000202020202060C000000000000000000038
:1018F000FF000800080008000800080008000800B1
:10190000080008000800FF000000000000000000C0
:10191000FF000400040004000400040004000400AC
:10192000040004000400FF000000000000000000AC
:10193000FFE0E2E0E2E0E2E0E2E0E2E0E2E0E2E07A
:10194000E2E0E2E0E2E0FF00000000000000000052
:101950007E7E7E7E7E7E7E7E7E7E7E7E7E7E7E7EA7
:101960007E7E7E7E7E7E7E00000000000000000005
:10197000BFBFBFBFBFBFBFBFBFBFBFBFBFBFBFBF77
:10198000BFBFBFBFBFBFBF0000000000000000001E
:10199000DFDFDFDFDFDFDFDFDFDFDFDFDFDFDFDF57
:1019A000DFDFDFDFDFDFDF0000000000000000001E
:1019B000070F0F0F0F0F0F0F0F0F0F0F0F0F0F0F3F
:1019C0000F0F0F0F0F0F07000000000000000000B6
:1019D000C06020202020203C060202020202063CB9
:1019E000202020202060C000000000000000000037
:1019F000FF000800080008000800080008000800B0
:101A0000080008000800FF000000000000000000BF
:101A1000FF000400040004000400040004000400AB
:101A2000040004000400FF000000000000000000AB
:101A3000FFC0C2C0C2C0C2C0C2C0C2C0C2C0C2C059
:101A4000C2C0C2C0C2C0FF00000000000000000011
:101A50007E7E7E7E7E7E7E7E7E7E7E7E7E7E7E7EA6
:101A60007E7E7E7E7E7E7E00000000000000000004
:101A7000BFBFBFBFBFBFBFBFBFBFBFBFBFBFBFBF76
:101A8000BFBFBFBFBFBFBF0000000000000000001D
:101A9000DFDFDFDFDFDFDFDFDFDFDFDFDFDFDFDF56
:101AA000DFDFDFDFDFDFDF0000000000000000001D
:101AB000070F0F0F0F0F0F0F0F0F0F0F0F0F0F0F3E
:101AC0000F0F0F0F0F0F07000000000000000000B5
:101AD000C06020202020203C060202020202063CB8
:101AE000202020202060C000000000000000000036
:101AF000FF000800080008000800080008000800AF
:101B0000080008000800FF000000000000000000BE
:101B1000FF000400040004000400040004000400AA
:101B2000040004000400FF000000000000000000AA
:101B3000FF80828082808280828082808280828018
:101B4000828082808280FF00000000000000000090
:101B50007E7E7E7E7E7E7E7E7E7E7E7E7E7E7E7EA5
:101B60007E7E7E7E7E7E7E00000000000000000003
:101B7000BFBFBFBFBFBFBFBFBFBFBFBFBFBFBFBF75
:101B8000BFBFBFBFBFBFBF0000000000000000001C
:101B9000DFDFDFDFDFDFDFDFDFDFDFDFDFDFDFDF55
:101BA000DFDFDFDFDFDFDF0000000000000000001C
:101BB000070F0F0F0F0F0F0F0F0F0F0F0F0F0F0F3D
:101BC0000F0F0F0F0F0F07000000000000000000B4
:101BD000C06020202020203C060202020202063CB7
:101BE000202020202060C000000000000000000035
:101BF000FF000800080008000800080008000800AE
:101C0000080008000800FF000000000000000000BD
:101C1000FF000400040004000400040004000400A9
:101C2000040004000400FF000000000000000000A9
:101C3000FF00020002000200020002000200020097
:101C4000020002000200FF0000000000000000008F
:101C50007F7E7F7E7F7E7F7E7F7E7F7E7F7E7F7E9C
:101C60007F7E7F7E7F7E7F000000000000000000FE
:101C7000BFBFBFBFBFBFBFBFBFBFBFBFBFBFBFBF74
:101C8000BFBFBFBFBFBFBF0000000000000000001B
:101C9000DFDFDFDFDFDFDFDFDFDFDFDFDFDFDFDF54
:101CA000DFDFDFDFDFDFDF0000000000000000001B
:101CB000070F0F0F0F0F0F0F0F0F0F0F0F0F0F0F3C
:101CC0000F0F0F0F0F0F07000000000000000000B3
:101CD000C06020202020203C060202020202063CB6
:101CE000202020202060C000000000000000000034
:101CF000FF000800080008000800080008000800AD
:101D0000080008000800FF000000000000000000BC
:101D1000FF000400040004000400040004000400A8
:101D2000040004000400FF000000000000000000A8
:101D3000FF00020002000200020002000200020096
:101D4000020002000200FF0000000000000000008E
:101D50007F7C7D7C7D7C7D7C7D7C7D7C7D7C7D7CB9
:101D60007D7C7D7C7D7C7F00000000000000000009
:101D7000BFBFBFBFBFBFBFBFBFBFBFBFBFBFBFBF73
:101D8000BFBFBFBFBFBFBF0000000000000000001A
:101D9000DFDFDFDFDFDFDFDFDFDFDFDFDFDFDFDF53
:101DA000DFDFDFDFDFDFDF0000000000000000001A
:101DB000070F0F0F0F0F0F0F0F0F0F0F0F0F0F0F3B
:101DC0000F0F0F0F0F0F07000000000000000000B2
:101DD000C06020202020203C060202020202063CB5
:101DE000202020202060C000000000000000000033
:101DF000FF000800080008000800080008000800AC
:101E0000080008000800FF000000000000000000BB
:101E1000FF000400040004000400040004000400A7
:101E2000040004000400FF000000000000000000A7
:101E3000FF00020002000200020002000200020095
:101E4000020002000200FF0000000000000000008D
:101E50007F787978797879787978797879787978F4
:101E60007978797879787F00000000000000000020
:101E7000BFBFBFBFBFBFBFBFBFBFBFBFBFBFBFBF72
:101E8000BFBFBFBFBFBFBF00000000000000000019
:101E9000DFDFDFDFDFDFDFDFDFDFDFDFDFDFDFDF52
:101EA000DFDFDFDFDFDFDF00000000000000000019
:101EB000070F0F0F0F0F0F0F0F0F0F0F0F0F0F0F3A
:101EC0000F0F0F0F0F0F07000000000000000000B1
:101ED000C06020202020203C060202020202063CB4
:101EE000202020202060C000000000000000000032
:101EF000FF000800080008000800080008000800AB
:101F0000080008000800FF000000000000000000BA
:101F1000FF000400040004000400040004000400A6
:101F2000040004000400FF000000000000000000A6
:101F3000FF00020002000200020002000200020094
:101F4000020002000200FF0000000000000000008C
:101F50007F7071707170717071707170717071706B
:101F60007170717071707F0000000000000000004F
:101F7000BFBFBFBFBFBFBFBFBFBFBFBFBFBFBFBF71
:101F8000BFBFBFBFBFBFBF00000000000000000018
:101F9000DFDFDFDFDFDFDFDFDFDFDFDFDFDFDFDF51
:101FA000DFDFDFDFDFDFDF00000000000000000018
:101FB000070F0F0F0F0F0F0F0F0F0F0F0F0F0F0F39
:101FC0000F0F0F0F0F0F07000000000000000000B0
:101FD000C06020202020203C060202020202063CB3
:101FE000202020202060C000000000000000000031
:101FF000FF000800080008000800080008000800AA
:10200000080008000800FF000000000000000000B9
:10201000FF000400040004000400040004000400A5
:10202000040004000400FF000000000000000000A5
:10203000FF00020002000200020002000200020093
:10204000020002000200FF0000000000000000008B
:102050007F6061606160616061606160616061605A
:102060006160616061607F000000000000000000AE
:10207000BFBFBFBFBFBFBFBFBFBFBFBFBFBFBFBF70
:10208000BFBFBFBFBFBFBF00000000000000000017
:10209000DFDFDFDFDFDFDFDFDFDFDFDFDFDFDFDF50
:1020A000DFDFDFDFDFDFDF00000000000000000017
:1020B000070F0F0F0F0F0F0F0F0F0F0F0F0F0F0F38
:1020C0000F0F0F0F0F0F07000000000000000000AF
:1020D000C06020202020203C060202020202063CB2
:1020E000202020202060C000000000000000000030
:1020F000FF000800080008000800080008000800A9
:10210000080008000800FF000000000000000000B8
:10211000FF000400040004000400040004000400A4
:10212000040004000400FF000000000000000000A4
:10213000FF00020002000200020002000200020092
:10214000020002000200FF0000000000000000008A
:102150007F40414041404140414041404140414039
:102160004140414041407F0000000000000000006D
:10217000BFBFBFBFBFBFBFBFBFBFBFBFBFBFBFBF6F
:10218000BFBFBFBFBFBFBF00000000000000000016
:10219000DFDFDFDFDFDFDFDFDFDFDFDFDFDFDFDF4F
:1021A000DFDFDFDFDFDFDF00000000000000000016
:1021B000070F0F0F0F0F0F0F0F0F0F0F0F0F0F0F37
:1021C0000F0F0F0F0F0F07000000000000000000AE
:1021D000C06020202020203C060202020202063CB1
:1021E000202020202060C00000000000000000002F
:1021F000FF000800080008000800080008000800A8
:10220000080008000800FF000000000000000000B7
:10221000FF000400040004000400040004000400A3
:10222000040004000400FF000000000000000000A3
:10223000FF00020002000200020002000200020091
:10224000020002000200FF00000000000000000089
:10225000FF008100810081008100810081008100F8
:10226000810081008100FF000000000000000000EC
:10227000BFBFBFBFBFBFBFBFBFBFBFBFBFBFBFBF6E
:10228000BFBFBFBFBFBFBF00000000000000000015
:10229000DFDFDFDFDFDFDFDFDFDFDFDFDFDFDFDF4E
:1022A000DFDFDFDFDFDFDF00000000000000000015
:1022B000070F0F0F0F0F0F0F0F0F0F0F0F0F0F0F36
:1022C0000F0F0F0F0F0F07000000000000000000AD
:1022D000C06020202020203C060202020202063CB0
:1022E000202020202060C00000000000000000002E
:1022F000FF000800080008000800080008000800A7
:10230000080008000800FF000000000000000000B6
:10231000FF000400040004000400040004000400A2
:10232000040004000400FF000000000000000000A2
:10233000FF00020002000200020002000200020090
:10234000020002000200FF00000000000000000088
:10235000FF008100810081008100810081008100F7
:10236000810081008100FF000000000000000000EB
:10237000BFBEBEBEBEBEBEBEBEBEBEBEBEBEBEBE7C
:10238000BEBEBEBEBEBEBF0000000000000000001A
:10239000DFDFDFDFDFDFDFDFDFDFDFDFDFDFDFDF4D
:1023A000DFDFDFDFDFDFDF00000000000000000014
:1023B000070F0F0F0F0F0F0F0F0F0F0F0F0F0F0F35
:1023C0000F0F0F0F0F0F07000000000000000000AC
:1023D000C06020202020203C060202020202063CAF
:1023E000202020202060C00000000000000000002D
:1023F000FF000800080008000800080008000800A6
:10240000080008000800FF000000000000000000B5
:10241000FF000400040004000400040004000400A1
:10242000040004000400FF000000000000000000A1
:10243000FF0002000200020002000200020002008F
:10244000020002000200FF00000000000000000087
:10245000FF008100810081008100810081008100F6
:10246000810081008100FF000000000000000000EA
:10247000BFBCBCBCBCBCBCBCBCBCBCBCBCBCBCBC99
:10248000BCBCBCBCBCBCBF00000000000000000025
:10249000DFDFDFDFDFDFDFDFDFDFDFDFDFDFDFDF4C
:1024A000DFDFDFDFDFDFDF00000000000000000013
:1024B000070F0F0F0F0F0F0F0F0F0F0F0F0F0F0F34
:1024C0000F0F0F0F0F0F07000000000000000000AB
:1024D000C06020202020203C060202020202063CAE
:1024E000202020202060C00000000000000000002C
:1024F000FF000800080008000800080008000800A5
:10250000080008000800FF000000000000000000B4
:10251000FF000400040004000400040004000400A0
:10252000040004000400FF000000000000000000A0
:10253000FF0002000200020002000200020002008E
:10254000020002000200FF00000000000000000086
:10255000FF008100810081008100810081008100F5
:10256000810081008100FF000000000000000000E9
:10257000BFB8B8B8B8B8B8B8B8B8B8B8B8B8B8B8D4
:10258000B8B8B8B8B8B8BF0000000000000000003C
:10259000DFDFDFDFDFDFDFDFDFDFDFDFDFDFDFDF4B
:1025A000DFDFDFDFDFDFDF00000000000000000012
:1025B000070F0F0F0F0F0F0F0F0F0F0F0F0F0F0F33
:1025C0000F0F0F0F0F0F07000000000000000000AA
:1025D000C06020202020203C060202020202063CAD
:1025E000202020202060C00000000000000000002B
:1025F000FF000800080008000800080008000800A4
:10260000080008000800FF000000000000000000B3
:10261000FF0004000400040004000400040004009F
:10262000040004000400FF0000000000000000009F
:10263000FF0002000200020002000200020002008D
:10264000020002000200FF00000000000000000085
:10265000FF008100810081008100810081008100F4
:10266000810081008100FF000000000000000000E8
:10267000BFB0B0B0B0B0B0B0B0B0B0B0B0B0B0B04B
:10268000B0B0B0B0B0B0BF0000000000000000006B
:10269000DFDFDFDFDFDFDFDFDFDFDFDFDFDFDFDF4A
:1026A000DFDFDFDFDFDFDF00000000000000000011
:1026B000070F0F0F0F0F0F0F0F0F0F0F0F0F0F0F32
:1026C0000F0F0F0F0F0F07000000000000000000A9
:1026D000C06020202020203C060202020202063CAC
:1026E000202020202060C00000000000000000002A
:1026F000FF000800080008000800080008000800A3
:10270000080008000800FF000000000000000000B2
:10271000FF0004000400040004000400040004009E
:10272000040004000400FF0000000000000000009E
:10273000FF0002000200020002000200020002008C
:10274000020002000200FF00000000000000000084
:10275000FF008100810081008100810081008100F3
:10276000810081008100FF000000000000000000E7
:10277000BFA0A0A0A0A0A0A0A0A0A0A0A0A0A0A03A
:10278000A0A0A0A0A0A0BF000000000000000000CA
:10279000DFDFDFDFDFDFDFDFDFDFDFDFDFDFDFDF49
:1027A000DFDFDFDFDFDFDF00000000000000000010
:1027B000070F0F0F0F0F0F0F0F0F0F0F0F0F0F0F31
:1027C0000F0F0F0F0F0F07000000000000000000A8
:1027D000C06020202020203C060202020202063CAB
:1027E000202020202060C000000000000000000029
:1027F000FF000800080008000800080008000800A2
:10280000080008000800FF000000000000000000B1
:10281000FF0004000400040004000400040004009D
:10282000040004000400FF0000000000000000009D
:10283000FF0002000200020002000200020002008B
:10284000020002000200FF00000000000000000083
:10285000FF008100810081008100810081008100F2
:10286000810081008100FF000000000000000000E6
:10287000FF80C080C080C080C080C080C080C08019
:10288000C080C080C080FF00000000000000000089
:10289000DFDFDFDFDFDFDFDFDFDFDFDFDFDFDFDF48
:1028A000DFDFDFDFDFDFDF0000000000000000000F
:1028B000070F0F0F0F0F0F0F0F0F0F0F0F0F0F0F30
:1028C0000F0F0F0F0F0F07000000000000000000A7
:1028D000C06020202020203C060202020202063CAA
:1028E000202020202060C000000000000000000028
:1028F000FF000800080008000800080008000800A1
:10290000080008000800FF000000000000000000B0
:10291000FF0004000400040004000400040004009C
:10292000040004000400FF0000000000000000009C
:10293000FF0002000200020002000200020002008A
:10294000020002000200FF00000000000000000082
:10295000FF008100810081008100810081008100F1
:10296000810081008100FF000000000000000000E5
:10297000FF00400040004000400040004000400098
:10298000400040004000FF00000000000000000088
:10299000DFDFDFDFDFDFDFDFDFDFDFDFDFDFDFDF47
:1029A000DFDFDFDFDFDFDF0000000000000000000E
:1029B000070F0F0F0F0F0F0F0F0F0F0F0F0F0F0F2F
:1029C0000F0F0F0F0F0F07000000000000000000A6
:1029D000C06020202020203C060202020202063CA9
:1029E000202020202060C000000000000000000027
:1029F000FF000800080008000800080008000800A0
:102A0000080008000800FF000000000000000000AF
:102A1000FF0004000400040004000400040004009B
:102A2000040004000400FF0000000000000000009B
:102A3000FF00020002000200020002000200020089
:102A4000020002000200FF00000000000000000081
:102A5000FF008100810081008100810081008100F0
:102A6000810081008100FF000000000000000000E4
:102A7000FF00400040004000400040004000400097
:102A8000400040004000FF00000000000000000087
:102A9000DFDEDEDEDEDEDEDEDEDEDEDEDEDEDEDE55
:102AA000DEDEDEDEDEDEDF00000000000000000013
:102AB000070F0F0F0F0F0F0F0F0F0F0F0F0F0F0F2E
:102AC0000F0F0F0F0F0F07000000000000000000A5
:102AD000C06020202020203C060202020202063CA8
:102AE000202020202060C000000000000000000026
:102AF000FF0008000800080008000800080008009F
:102B0000080008000800FF000000000000000000AE
:102B1000FF0004000400040004000400040004009A
:102B2000040004000400FF0000000000000000009A
:102B3000FF00020002000200020002000200020088
:102B4000020002000200FF00000000000000000080
:102B5000FF008100810081008100810081008100EF
:102B6000810081008100FF000000000000000000E3
:102B7000FF00400040004000400040004000400096
:102B8000400040004000FF00000000000000000086
:102B9000DFDCDCDCDCDCDCDCDCDCDCDCDCDCDCDC72
:102BA000DCDCDCDCDCDCDF0000000000000000001E
:102BB000070F0F0F0F0F0F0F0F0F0F0F0F0F0F0F2D
:102BC0000F0F0F0F0F0F07000000000000000000A4
:102BD000C06020202020203C060202020202063CA7
:102BE000202020202060C000000000000000000025
:102BF000FF0008000800080008000800080008009E
:102C0000080008000800FF000000000000000000AD
:102C1000FF00040004000400040004000400040099
:102C2000040004000400FF00000000000000000099
:102C3000FF00020002000200020002000200020087
:102C4000020002000200FF0000000000000000007F
:102C5000FF008100810081008100810081008100EE
:102C6000810081008100FF000000000000000000E2
:102C7000FF00400040004000400040004000400095
:102C8000400040004000FF00000000000000000085
:102C9000DFD8D8D8D8D8D8D8D8D8D8D8D8D8D8D8AD
:102CA000D8D8D8D8D8D8DF00000000000000000035
:102CB000070F0F0F0F0F0F0F0F0F0F0F0F0F0F0F2C
:102CC0000F0F0F0F0F0F07000000000000000000A3
:102CD000C06020202020203C060202020202063CA6
:102CE000202020202060C000000000000000000024
:102CF000FF0008000800080008000800080008009D
:102D0000080008000800FF000000000000000000AC
:102D1000FF00040004000400040004000400040098
:102D2000040004000400FF00000000000000000098
:102D3000FF00020002000200020002000200020086
:102D4000020002000200FF0000000000000000007E
:102D5000FF008100810081008100810081008100ED
:102D6000810081008100FF000000000000000000E1
:102D7000FF00400040004000400040004000400094
:102D8000400040004000FF00000000000000000084
:102D9000DFD0D0D0D0D0D0D0D0D0D0D0D0D0D0D024
:102DA000D0D0D0D0D0D0DF00000000000000000064
:102DB000070F0F0F0F0F0F0F0F0F0F0F0F0F0F0F2B
:102DC0000F0F0F0F0F0F07000000000000000000A2
:102DD000C06020202020203C060202020202063CA5
:102DE000202020202060C000000000000000000023
:102DF000FF0008000800080008000800080008009C
:102E0000080008000800FF000000000000000000AB
:102E1000FF00040004000400040004000400040097
:102E2000040004000400FF00000000000000000097
:102E3000FF00020002000200020002000200020085
:102E4000020002000200FF0000000000000000007D
:102E5000FF008100810081008100810081008100EC
:102E6000810081008100FF000000000000000000E0
:102E7000FF00400040004000400040004000400093
:102E8000400040004000FF00000000000000000083
:102E9000FFC0E0C0E0C0E0C0E0C0E0C0E0C0E0C013
:102EA000E0C0E0C0E0C0FF00000000000000000043
:102EB000070F0F0F0F0F0F0F0F0F0F0F0F0F0F0F2A
:102EC0000F0F0F0F0F0F07000000000000000000A1
:102ED000C06020202020203C060202020202063CA4
:102EE000202020202060C000000000000000000022
:102EF000FF0008000800080008000800080008009B
:102F0000080008000800FF000000000000000000AA
:102F1000FF00040004000400040004000400040096
:102F2000040004000400FF00000000000000000096
:102F3000FF00020002000200020002000200020084
:102F4000020002000200FF0000000000000000007C
:102F5000FF008100810081008100810081008100EB
:102F6000810081008100FF000000000000000000DF
:102F7000FF00400040004000400040004000400092
:102F8000400040004000FF00000000000000000082
:102F9000FF80A080A080A080A080A080A080A080D2
:102FA000A080A080A080FF000000000000000000C2
:102FB000070F0F0F0F0F0F0F0F0F0F0F0F0F0F0F29
:102FC0000F0F0F0F0F0F07000000000000000000A0
:102FD000C06020202020203C060202020202063CA3
:102FE000202020202060C000000000000000000021
:102FF000FF0008000800080008000800080008009A
:10300000080008000800FF000000000000000000A9
:10301000FF00040004000400040004000400040095
:10302000040004000400FF00000000000000000095
:10303000FF00020002000200020002000200020083
:10304000020002000200FF0000000000000000007B
:10305000FF008100810081008100810081008100EA
:10306000810081008100FF000000000000000000DE
:10307000FF00400040004000400040004000400091
:10308000400040004000FF00000000000000000081
:10309000FF00200020002000200020002000200051
:1030A000200020002000FF000000000000000000C1
:1030B000070F0F0F0F0F0F0F0F0F0F0F0F0F0F0F28
:1030C0000F0F0F0F0F0F070000000000000000009F
:1030D000C06020202020203C060202020202063CA2
:1030E000202020202060C000000000000000000020
:1030F000FF00080008000800080008000800080099
:10310000080008000800FF000000000000000000A8
:10311000FF00040004000400040004000400040094
:10312000040004000400FF00000000000000000094
:10313000FF00020002000200020002000200020082
:10314000020002000200FF0000000000000000007A
:10315000FF008100810081008100810081008100E9
:10316000810081008100FF000000000000000000DD
:10317000FF00400040004000400040004000400090
:10318000400040004000FF00000000000000000080
:10319000FF00200020002000200020002000200050
:1031A000200020002000FF000000000000000000C0
:1031B000070E0E0E0E0E0E0E0E0E0E0E0E0E0E0E36
:1031C0000E0E0E0E0E0E07000000000000000000A4
:1031D000C06020202020203C060202020202063CA1
:1031E000202020202060C00000000000000000001F
:1031F000FF00080008000800080008000800080098
:10320000080008000800FF000000000000000000A7
:10321000FF00040004000400040004000400040093
:10322000040004000400FF00000000000000000093
:10323000FF00020002000200020002000200020081
:10324000020002000200FF00000000000000000079
:10325000FF008100810081008100810081008100E8
:10326000810081008100FF000000000000000000DC
:10327000FF0040004000400040004000400040008F
:10328000400040004000FF0000000000000000007F
:10329000FF0020002000200020002000200020004F
:1032A000200020002000FF000000000000000000BF
:1032B000070C0C0C0C0C0C0C0C0C0C0C0C0C0C0C53
:1032C0000C0C0C0C0C0C07000000000000000000AF
:1032D000C06020202020203C060202020202063CA0
:1032E000202020202060C00000000000000000001E
:1032F000FF00080008000800080008000800080097
:10330000080008000800FF000000000000000000A6
:10331000FF00040004000400040004000400040092
:10332000040004000400FF00000000000000000092
:10333000FF00020002000200020002000200020080
:10334000020002000200FF00000000000000000078
:10335000FF008100810081008100810081008100E7
:10336000810081008100FF000000000000000000DB
:10337000FF0040004000400040004000400040008E
:10338000400040004000FF0000000000000000007E
:10339000FF0020002000200020002000200020004E
:1033A000200020002000FF000000000000000000BE
:1033B000070C08080808080808080808080808088A
:1033C00008080808080C07000000000000000000C2
:1033D00000000000000000000000000000000000ED
:1033E00000000000000000000000000000000000DD
:1033F00000000000000000000000000000000000CD
:1034000000000000000000000000000000000000BC
:1034100000000000000000000000000000000000AC
:10342000000000000000000000000000000000009C
:10343000000000000000000000000000000000008C
:10344000000000000000000000000000000000007C
:10345000000000000000000000000000000000006C
:103460000000000000000030180C064284840400B4
:10347000000000000000000000000000000000004C
:10348000000000000000000000000000000000003C
:10349000000000000000000000000000000000002C
:1034A000000000000000000000000000000000001C
:1034B000000000000000000000000000000000000C
:1034C00000000000000000000000000000000000FC
:1034D00000000000000000000000000000000000EC
:1034E00000000000000000000000000000000000DC
:1034F00000000000000000000000000000000000CC
:1035000000000000000000000000000000000000BB
:1035100000000000000000000000000000000000AB
:10352000000000000000000000000000000000009B
:10353000000000000000000000000000000000008B
:10354000000000000000000000000000000000007B
:10355000000000000000000000000000000000006B
:10356000000000000000000000000000000000005B
:10357000000000000000000000000000000000004B
:10358000000000000000000000000000000000003B
:10359000000000000000000000000000000000002B
:1035A000000000000000000000000000000000001B
:1035B000000000000000000000000000000000000B
:1035C00000000000000000000000000000000000FB
:1035D00000000000000000000000000000000000EB
:1035E00000000000000000000000000000000000DB
:1035F00000000000000000000000000000000000CB
:1036000000000000000000000000000000000000BA
:1036100000000000000000000000000000000000AA
:10362000000000000000000080C060301888C0E08A
:10363000F0F8FCFCFCFCFEFFFFFFFFFFFEFEFEFCC3
:10364000FCFCFCF8F8F8F0F0F0F0F0E0E0C0C0802E
:10365000808000000000000000000000000000006A
:10366000000000000000000000000000000000005A
:10367000000000000000000000000000000000004A
:10368000000000000000000000000000000000003A
:10369000000000000000000000000000000000002A
:1036A000000000000000000000000000000000001A
:1036B000000000000000000000000000000000000A
:1036C00000000000000000000000000000000000FA
:1036D00000000000000000000000000000000000EA
:1036E00000000000000000000000000000000000DA
:1036F00000000000000000000000000000000000CA
:1037000000000000000000000000000000000000B9
:1037100000000000000000000000000000000000A9
:103720000000000000000000000000000000000099
:103730000000000000000000000000000000000089
:103740000000000000000000000000000000000079
:103750000000000000000000000000000000000069
:103760000000000000000000000000000000000059
:103770000000000000000000000000000000000049
:103780000000000000000000000000000000000039
:103790000000000000000000000000000000000029
:1037A0000000000000000000000000000000000019
:1037B0000000000000000000000000000000000009
:1037C00000000000000000000000000000000000F9
:1037D0000000000000000000000000000000008069
:1037E000C0F0F0B80C0602030381C1F981010103A6
:1037F00003ECFEFFF9FCFEFEFFFFFFFFFFFFFFFFF4
:10380000FFFFFFFFFFFFFFFFFFFFFFFFFFFFFFFFC8
:10381000FFFFFFFFFFFFFFFFFFFFFFFFFFFFFFFFB8
:10382000FFFFFEFEFCFCFCFCF8F8F8F0F0F0E0E036
:10383000C0C0C080808000000000000000000000C8
:103840000000000000000000000000000000000078
:103850000000000000000000000000000000000068
:103860000000000000000000000000000000000058
:103870000000000000000000000000000000000048
:103880000000000000000000000000000000000038
:103890000000000000000000000000000000000028
:1038A0000000000000000000000000000000000018
:1038B0000000000000000000000000000000000008
:1038C00000000000000000000000000000000000F8
:1038D00000000000000000000000000000000000E8
:1038E00000000000000000000000000000000000D8
:1038F00000000000000000000000000000000000C8
:1039000000000000000000000000000000000000B7
:1039100000000000000000000000000000000000A7
:103920000000000000000000000000000000000097
:103930000000000000000000000000000000000087
:103940000000000000000000000000000000000077
:103950000000000000000000000000000000000067
:103960000000000000000000000000000000000057
:103970000000000000000000000000000000000047
:103980000000000000000000000000000000000037
:103990000000000000000000000000000000000027
:1039A000000080C0E06070F8FC7E3E9F9F9F3F3F1C
:1039B0007E7CFCF8F8F8F8F8F8F8FCFEFFFFFFFF53
:1039C000FFFFFFFFFFFFFFFFFFFFFFFFFFFFFFFF07
:1039D000FFFFFFFFFFFFFFFFFFFFFFFFFFFFFFFFF7
:1039E000FFFFFFFFFFFFFFFFFFFFFFFFFFFFFFFFE7
:1039F000FFFFFFFFFFFFFFFFFFFFFFFFFFFFFFFFD7
:103A0000FFFFFFFFFFFEFEFCFCFCF8F8F8F0F0F013
:103A1000E0E0E0C0C0C080800000000000000000C6
:103A20000000000000000000000000000000000096
:103A30000000000000000000000000000000000086
:103A40000000000000000000000000000000000076
:103A50000000000000000000000000000000000066
:103A60000000000000000000000000000000000056
:103A70000000000000000000000000000000000046
:103A80000000000000000000000000000000000036
:103A90000000000000000000000000000000000026
:103AA0000000000000000000000000000000000016
:103AB0000000000000000000000000000000000006
:103AC00000000000000000000000000000000000F6
:103AD00000000000000000000000000000000000E6
:103AE00000000000000000000000000000000000D6
:103AF00000000000000000000000000000000000C6
:103B000000000000000000000000000000000000B5
:103B100000000000000000000000000000000000A5
:103B20000000000000000000000000000000000095
:103B30000000000000000000000000000000000085
:103B40000000000000000000000000000000000075
:103B50000000000000000000000000000000000065
:103B60000000000080C0E0F0F0381C1E3FFFCF8F47
:103B70008000989C4F7E3F1F9FF8FCF8F8FCFCFEED
:103B8000FFFFFFFFFFFFFFFFFFFFFFFFFFFFFFFF45
:103B9000FFFFFFFFFFFFFFFFFFFFFFFFFFFFFFFF35
:103BA000FFFFFFFFFFFFFFFFFFFFFFFFFFFFFFFF25
:103BB000FFFFFFFFFFFFFFFFFFFFFFFFFFFFFFFF15
:103BC000FFFFFFFFFFFFFFFFFFFFFFFFFFFFFFFF05
:103BD000FFFFFFFFFFFFFFFFFFFFFFFFFFFFFFFFF5
:103BE000FFFFFFFFFFFFFFFEFEFEFCFCFCF8F8F806
:103BF000F0F0E0E0E0C0C0C0808080000000000085
:103C000000000000000000000000000000000000B4
:103C100000000000000000000000000000000000A4
:103C20000000000000000000000000000000000094
:103C30000000000000000000000000000000000084
:103C40000000000000000000000000000000000074
:103C50000000000000000000000000000000000064
:103C60000000000000000000000000000000000054
:103C70000000000000000000000000000000000044
:103C80000000000000000000000000000000000034
:103C90000000000000000000000000000000000024
:103CA0000000000000000000000000000000000014
:103CB0000000000000000000000000000000000004
:103CC00000000000000000000000000000000000F4
:103CD00000000000000000000000000000000000E4
:103CE00000000000000000000000000000000000D4
:103CF00000000000000000000000000000000000C4
:103D000000000000000000000000000000000000B3
:103D100000000000000000000000000000000000A3
:103D2000000000000000000080C0E0F0F8FCDE0FA2
:103D300007CFFFFFF3E02060E7F79FBF8FC5EFF7E6
:103D4000FFFEFEFEFFFFFFFFFFFFFFFFFFFFFFFF86
:103D5000FFFFFFFFFFFFFFFFFFFFFFFFFFFFFFFF73
:103D6000FFFFFFFFFFFFFFFFFFFFFFFFFFFFFFFF63
:103D7000FFFFFFFFFFFFFFFFFFFFFFFFFFFFFFFF53
:103D8000FFFFFFFFFFFFFFFFFFFFFFFFFFFFFFFF43
:103D9000FFFFFFFFFFFFFFFFFFFFFFFFFFFFFFFF33
:103DA000FFFFFFFFFFFFFFFFFFFFFFFFFFFFFFFF23
:103DB000FFFFFFFFFFFFFFFFFFFFFFFFFFFFFFFF13
:103DC000FFFFFFFFFFFFFFFFFFFFFEFEFEFCFCFC0F
:103DD000F8F8F0F0F0E0E0E0C0C0C0808000000043
:103DE00000000000000000000000000000000000D3
:103DF00000000000000000000000000000000000C3
:103E000000000000000000000000000000000000B2
:103E100000000000000000000000000000000000A2
:103E20000000000000000000000000000000000092
:103E30000000000000000000000000000000000082
:103E40000000000000000000000000000000000072
:103E50000000000000000000000000000000000062
:103E60000000000000000000000000000000000052
:103E70000000000000000000000000000000000042
:103E80000000000000000000000000000000000032
:103E90000000000000000000000000000000000022
:103EA0000000000000000000000000000000000012
:103EB0000000000000000000000000000000000002
:103EC00000000000000000000000000000000000F2
:103ED00000000000000000000000000000000000E2
:103EE00000000000000000000000000080C0E0F0C2
:103EF000F8FCFE7F0383E3F73F7FF8F8F8FFFFFE4F
:103F0000FFE3F3F3FBFFFFFFFFFFFFFFFFFFFFFFF9
:103F1000FFFFFFFFFFFFFFFFFFFFFFFFFFFFFFFFB1
:103F2000FFFFFFFFFFFFFFFFFFFFFFFFFFFFFFFFA1
:103F3000FFFFFFFFFFFFFFFFFFFFFFFFFFFFFFFF91
:103F4000FFFFFFFFFFFFFFFFFFFFFFFFFFFFFFFF81
:103F5000FFFFFFFFFFFFFFFFFFFFFFFFFFFFFFFF71
:103F6000FFFFFFFFFFFFFFFFFFFFFFFFFFFFFFFF61
:103F7000FFFFFFFFFFFFFFFFFFFFFFFFFFFFFFFF51
:103F8000FFFFFFFFFFFFFFFFFFFFFFFFFFFFFFFF41
:103F9000FFFFFFFFFFFFFFFFFFFFFFFFFFFFFFFF31
:103FA000FFFFFFFFFFFFFFFFFFFFFFFFFEFEFEFC27
:103FB000FCFCF8F8F8F0F0F0E0E0C0C0C0808080D1
:103FC00000000000000000000000000000000000F1
:103FD00000000000000000000000000000000000E1
:103FE00000000000000000000000000000000000D1
:103FF00000000000000000000000000000000000C1
:1040000000000000000000000000000000000000B0
:1040100000000000000000000000000000000000A0
:104020000000000000000000000000000000000090
:104030000000000000000000000000000000000080
:104040000000000000000000000000000000000070
:104050000000000000000000000000000000000060
:104060000000000000000000000000000000000050
:104070000000000000000000000000000000000040
:104080000000000000000000000000000000000030
:104090000000000000000000000000000000000020
:1040A0000000000000000000000000000000008090
:1040B00080C0E0F0F8FCFEFF3F1F0F0FEF4F1EFE29
:1040C000F4706848CFFFFFF1FDFCFFFFFFFFFFFF2B
:1040D000FFFFFFFFFFFFFFFFFFFFFFFFFFFFFFFFF0
:1040E000FFFFFFFFFFFFFFFFFFFFFFFFFFFFFFFFE0
:1040F000FFFFFFFFFFFFFFFFFFFFFFFFFFFFFFFFD0
:10410000FFFFFFFFFFFFFFFFFFFFFFFFFFFFFFFFBF
:10411000FFFFFFFFFFFFFFFFFFFFFFFFFFFFFFFFAF
:10412000FFFFFFFFFFFFFFFFFFFFFFFFFFFFFFFF9F
:10413000FFFFFFFFFFFFFFFFFFFFFFFFFFFFFFFF8F
:10414000FFFFFFFFFFFFFFFFFFFFFFFFFFFFFFFF7F
:10415000FFFFFFFFFFFFFFFFFFFFFFFFFFFFFFFF6F
:10416000FFFFFFFFFFFFFFFFFFFFFFFFFFFFFFFF5F
:10417000FFFFFFFFFFFFFFFFFFFFFFFFFFFFFFFF4F
:10418000FFFFFFFFFFFFFFFFFFFFFFFFFFFFFFFE40
:10419000FEFCFCFCF8F8F8F0F0F0E0E0E0C0C0C095
:1041A000808000000000000000000000000000000F
:1041B00000000000000000000000000000000000FF
:1041C00000000000000000000000000000000000EF
:1041D00000000000000000000000000000000000DF
:1041E00000000000000000000000000000000000CF
:1041F00000000000000000000000000000000000BF
:1042000000000000000000000000000000000000AE
:10421000000000000000000000000000000000009E
:10422000000000000000000000000000000000008E
:10423000000000000000000000000000000000007E
:10424000000000000000000000000000000000006E
:10425000000000000000000000000000000000005E
:10426000000000000000000000000000000000004E
:1042700000000080C0E0F0F8FCFEFFFFFFFF878732
:104280008787B7B7CF7E3E9E9EFEFFFDF8FEFFFFFD
:10429000FFFFFFFFFFFFFFFFFFFFFFFFFFFFFFFF2E
:1042A000FFFFFFFFFFFFFFFFFFFFFFFFFFFFFFFF1E
:1042B000FFFFFFFFFFFFFFFFFFFFFFFFFFFFFFFF0E
:1042C000FFFFFFFFFFFFFFFFFFFFFFFFFFFFFFFFFE
:1042D000FFFFFFFFFFFFFFFFFFFFFFFFFFFFFFFFEE
:1042E000FFFFFFFFFFFFFFFFFFFFFFFFFFFFFFFFDE
:1042F000FFFFFFFFFFFFFFFFFFFFFFFFFFFFFFFFCE
:10430000FFFFFFFFFFFFFFFFFFFFFFFFFFFFFFFFBD
:10431000FFFFFFFFFFFFFFFFFFFFFFFFFFFFFFFFAD
:10432000FFFFFFFFFFFFFFFFFFFFFFFFFFFFFFFF9D
:10433000FFFFFFFFFFFFFFFFFFFFFFFFFFFFFFFF8D
:10434000FFFFFFFFFFFFFFFFFFFFFFFFFFFFFFFF7D
:10435000FFFFFFFFFFFFFFFFFFFFFFFFFFFFFFFF6D
:10436000FFFFFFFFFFFFFFFFFFFFFFFFFFFFFFFF5D
:10437000FFFEFEFEFCFCFCF8F8F8F0F0E0E0E0C028
:10438000C0C080808000000000000000000000002D
:10439000000000000000000000000000000000001D
:1043A000000000000000000000000000000000000D
:1043B00000000000000000000000000000000000FD
:1043C00000000000000000000000000000000000ED
:1043D00000000000000000000000000000000000DD
:1043E00000000000000000000000000000000000CD
:1043F00000000000000000000000000000000000BD
:1044000000000000000000000000000000000000AC
:10441000000000000000000000000000000000009C
:10442000000000000000000000000000000000008C
:104430000000000000000080C0E0F0787CFEFFFF7C
:10444000FFFFFFE3C3C1C1C1E9E3BF1F2F292D3F18
:104450003FBEFEFFFFFFFFFFFFFFFFFFFFFFFFFF6E
:10446000FFFFFFFFFFFFFFFFFFFFFFFFFFFFFFFF5C
:10447000FFFFFFFFFFFFFFFFFFFFFFFFFFFFFFFF4C
:10448000FFFFFFFFFFFFFFFFFFFFFFFFFFFFFFFF3C
:10449000FFFFFFFFFFFFFFFFFFFFFFFFFFFFFFFF2C
:1044A000FFFFFFFFFFFFFFFFFFFFFFFFFFFFFFFF1C
:1044B000FFFFFFFFFFFFFFFFFFFFFFFFFFFFFFFF0C
:1044C000FFFFFFFFFFFFFFFFFFFFFFFFFFFFFFFFFC
:1044D000FFFFFFFFFFFFFFFFFFFFFFFFFFFFFFFFEC
:1044E000FFFFFFFFFFFFFFFFFFFFFFFFFFFFFFFFDC
:1044F000FFFFFFFFFFFFFFFFFFFFFFFFFFFFFFFFCC
:10450000FFFFFFFFFFFFFFFFFFFFFFFFFFFFFFFFBB
:10451000FFFFFFFFFFFFFFFFFFFFFFFFFFFFFFFFAB
:10452000FFFFFFFFFFFFFFFFFFFFFFFFFFFFFFFF9B
:10453000FFFFFFFFFFFFFFFFFFFFFFFFFFFFFFFF8B
:10454000FFFFFFFFFFFFFFFFFFFFFFFFFFFFFFFF7B
:10455000FFFFFFFFFEFEFCFCFCF8F8F8F0F0F0E0D7
:10456000E0C0C0C0808080000000000000000000AB
:1045700000808080000000000000000000000000BB
:10458000000000000000000000000000000000002B
:10459000000000000000000000000000000000001B
:1045A000000000000000000000000000000000000B
:1045B00000000000000000000000000000000000FB
:1045C00000000000000000000000000000000000EB
:1045D00000000000000000000000000000000000DB
:1045E00000000000000000000000000000000000CB
:1045F000000000000000000000000080C0E0F0F8B3
:10460000FCFEFF6F0787E0F2F2FBE5EE6961DDCDAE
:10461000EF87C7F6FEFEFFFBFFFFFFFFFFFFFFFF79
:10462000FFFFFFFFFFFFFFFFFFFFFFFFFFFFFFFF9A
:10463000FFFFFFFFFFFFFFFFFFFFFFFFFFFFFFFF8A
:10464000FFFFFFFFFFFFFFFFFFFFFFFFFFFFFFFF7A
:10465000FFFFFFFFFFFFFFFFFFFFFFFFFFFFFFFF6A
:10466000FFFFFFFFFFFFFFFFFFFFFFFFFFFFFFFF5A
:10467000FFFFFFFFFFFFFFFFFFFFFFFFFFFFFFFF4A
:10468000FFFFFFFFFFFFFFFFFFFFFFFFFFFFFFFF3A
:10469000FFFFFFFFFFFFFFFFFFFFFFFFFFFFFFFF2A
:1046A000FFFFFFFFFFFFFFFFFFFFFFFFFFFFFFFF1A
:1046B000FFFFFFFFFFFFFFFFFFFFFFFFFFFFFFFF0A
:1046C000FFFFFFFFFFFFFFFFFFFFFFFFFFFFFFFFFA
:1046D000FFFFFFFFFFFFFFFFFFFFFFFFFFFFFFFFEA
:1046E000FFFFFFFFFFFFFFFFFFFFFFFFFFFFFFFFDA
:1046F000FFFFFFFFFFFFFFFFFFFFFFFFFFFFFFFFCA
:10470000FFFFFFFFFFFFFFFFFFFFFFFFFFFFFFFFB9
:10471000FFFFFFFFFFFFFFFFFFFFFFFFFFFFFFFFA9
:10472000FFFFFFFFFFFFFFFFFFFFFFFFFFFFFFFF99
:10473000FFFFFFFFFFFFFEFEFEFCFCF8F8F8F1F1C3
:10474000F3E3E3E6C6464C0C0C1898F8F0F0600072
:104750000000000000000000000000000000000059
:104760000000000000000000000000000000000049
:104770000000000000000000000000000000000039
:104780000000000000000000000000000000000029
:104790000000000000000000000000000000000019
:1047A0000000000000000000000000000000000009
:1047B0000000000000000000000000000000008079
:1047C000C0E0F0F8FCFEFF7F7F0361F377FFFCFCA5
:1047D000E0E9FD7FFFFFC781F9FFFFFFFFFFFFFF5C
:1047E000FFFFFFFFFFFFFFFFFFFFFFFFFFFFFFFFD9
:1047F000FFFFFFFFFFFFFFFFFFFFFFFFFFFFFFFFC9
:10480000FFFFFFFFFFFFFFFFFFFFFFFFFFFFFFFFB8
:10481000FFFFFFFFFFFFFFFFFFFFFFFFFFFFFFFFA8
:10482000FFFFFFFFFFFFFFFFFFFFFFFFFFFFFFFF98
:10483000FFFFFFFFFFFFFFFFFFFFFFFFFFFFFFFF88
:10484000FFFFFFFFFFFFFFFFFFFFFFFFFFFFFFFF78
:10485000FFFFFFFFFFFFFFFFFFFFFFFFFFFFFFFF68
:10486000FFFFFFFFFFFFFFFFFFFFFFFFFFFFFFFF58
:10487000FFFFFFFFFFFFFFFFFFFFFFFFFFFFFFFF48
:10488000FFFFFFFFFFFFFFFFFFFFFFFFFFFFFFFF38
:10489000FFFFFFFFFFFFFFFFFFFFFFFFFFFFFFFF28
:1048A000FFFFFFFFFFFFFFFFFFFFFFFFFFFFFFFF18
:1048B000FFFFFFFFFFFFFFFFFFFFFFFFFFFFFFFF08
:1048C000FFFFFFFFFFFFFFFFFFFFFFFFFFFFFFFFF8
:1048D000FFFFFFFFFFFFFFFFFFFFFFFFFFFFFFFFE8
:1048E000FFFFFFFFFFFFFFFFFFFFFFFFFFFFFFFFD8
:1048F000FFFFFFFFFFFFFFFFFFFFFFFFFFFFFFFFC8
:10490000FFFFFFFFFFFFFFFFFFFFFFFFFFFFFFFFB7
:10491000180000000407070181613E00000000004C
:104920000000000000000000000000000000000087
:104930000000000000000000000000000000000077
:104940000000000000000000000000000000000067
:104950000000000000000000000000000000000057
:104960000000000000000000000000000000000047
:104970000000000000000000000000000000000037
:10498000000080C0E0F0F87C7C7EFFFF9F7F313824
:1049900078BDFFFFFEF27E3E1F7F7F3F0F09181894
:1049A0001C1F3F3F3F7F7F7FFFFFFFFFFFFFFFFF9A
:1049B000FFFFFFFFFFFFFFFFFFFFFFFFFFFFFFFF07
:1049C000FFFFFFFFFFFFFFFFFFFFFFFFFFFFFFFFF7
:1049D000FFFFFFFFFFFFFFFFFFFFFFFFFFFFFFFFE7
:1049E000FFFFFFFFFFFFFFFFFFFFFFFFFFFFFFFFD7
:1049F000FFFFFFFFFFFFFFFFFFFFFFFFFFFFFFFFC7
:104A0000FFFFFFFFFFFFFFFFFFFFFFFFFFFFFFFFB6
:104A1000FFFFFFFFFFFFFFFFFFFFFFFFFFFFFFFFA6
:104A2000FFFFFFFFFFFFFFFFFFFFFFFFFFFFFFFF96
:104A3000FFFFFFFFFFFFFFFFFFFFFFFFFFFFFFFF86
:104A4000FFFFFFFFFFFFFFFFFFFFFFFFFFFFFFFF76
:104A5000FFFFFFFFFFFFFFFFFFFFFFFFFFFFFFFF66
:104A6000FFFFFFFFFFFFFFFFFFFFFFFFFFFFFFFF56
:104A7000FFFFFFFFFFFFFFFFFFFFFFFFFFFFFFFF46
:104A8000FFFFFFFFFFFFFFFFFFFFFFFFFFFFFFFF36
:104A9000FFFFFFFFFFFFFFFFFFFFFFFFFFFFFFFF26
:104AA000FFFFFFFFFFFFFFFFFFFFFFFFFFFFFFFF16
:104AB000FFFFFFFFFFFFFFFFFFFFFFFFFFFFFFFF06
:104AC000FFFFFFFFFFFFFFFFFFFFFFFFFFFFFFFFF6
:104AD000FFFFFFFFFFFFFFFF3F9FC7838180402055
:104AE00000000001000000000000000000000000C5
:104AF00000000000000000000000000000000000B6
:104B000000000000000000000000000000000000A5
:104B10000000000000000000000000000000000095
:104B20000000000000000000000000000000000085
:104B30000000000000000000000000000000000075
:104B400000000000000080C0E0F0F8FC3E3F3F7F26
:104B5000FFDF97909C9CDECFFF7F3BFBFFFFFF1F9B
:104B60001F06607078F8F0F0606060C0C040000020
:104B70000000000000000001010303030707070F06
:104B80000F1F1F1F3F3F7F7F7FFFFFFFFFFFFFFFC5
:104B9000FFFFFFFFFFFFFFFFFFFFFFFFFFFFFFFF25
:104BA000FFFFFFFFFFFFFFFFFFFFFFFFFFFFFFFF15
:104BB000FFFFFFFFFFFFFFFFFFFFFFFFFFFFFFFF05
:104BC000FFFFFFFFFFFFFFFFFFFFFFFFFFFFFFFFF5
:104BD000FFFFFFFFFFFFFFFFFFFFFFFFFFFFFFFFE5
:104BE000FFFFFFFFFFFFFFFFFFFFFFFFFFFFFFFFD5
:104BF000FFFFFFFFFFFFFFFFFFFFFFFFFFFFFFFFC5
:104C0000FFFFFFFFFFFFFFFFFFFFFFFFFFFFFFFFB4
:104C1000FFFFFFFFFFFFFFFFFFFFFFFFFFFFFFFFA4
:104C2000FFFFFFFFFFFFFFFFFFFFFFFFFFFFFFFF94
:104C3000FFFFFFFFFFFFFFFFFFFFFFFFFFFFFFFF84
:104C4000FFFFFFFFFFFFFFFFFFFFFFFFFFFFFFFF74
:104C5000FFFFFFFFFFFFFFFFFFFFFFFFFFFFFFFF64
:104C6000FFFFFFFFFFFFFFFFFFFFFFFFFFFFFFFF54
:104C7000FFFFFFFFFFFFFFFFFFFFFFFFFFFFFFFF44
:104C8000FFFFFFFFFFFFFFFFFFFFFFFFFFFFFFFF34
:104C9000FFFFFFFFFFFFFFFFFFFFFFFFFFFFFFFF24
:104CA000FFBFBFFFFFFFFFFFFFFFFFFEFEFEFCFC9D
:104CB000FCF8E8F0F8F0F0F0E0E0E0C0C0808080C0
:104CC00000000000000000000000000000000000E4
:104CD00000000000000000000000000000000000D4
:104CE00000000000000000000000000000000000C4
:104CF00000000000000000000000000000000000B4
:104D00000000000000000000000080C0E0F0F8FC9F
:104D1000FE1F0F9FFFFFE7CB48CCDEEFFFFFBF8FEB
:104D2000C42F0F8FCE5E7FFFFFFFFFFCF8F8FCFE65
:104D3000FCFCFCC880808090E0E0F0E2FCFCFCF829
:104D4000F81810F0E0E0E0C0C0C080800000000073
:104D50000000000000000000010183430307070773
:104D60000F0F1F1F1F3F3F3F7F7FFFFFFFFFFFFF13
:104D7000FFFFFFFFFFFFFFFFFFFFFFFFFFFFFFFF43
:104D8000FFFFFFFFFFFFFFFFFFFFFFFFFFFFFFFF33
:104D9000FFFFFFFFFFFFFFFFFFFFFFFFFFFFFFFF23
:104DA000FFFFFFFFFFFFFFFFFFFFFFFFFFFFFFFF13
:104DB000FFFFFFFFFFFFFFFFFFFFFFFFFFFFFFFF03
:104DC000FFFFFFFFFFFFFFFFFFFFFFFFFFFFFFFFF3
:104DD000FFFFFFFFFFFFFFFFFFFFFFFFFFFFFFFFE3
:104DE000FFFFFFFFFFFFFFFFFFFFFFFFFFFFFFFFD3
:104DF000FFFFFFFFFFFFFFFFFFFFFFFFFFFFFFFFC3
:104E0000FFFFFFFFFFFFFFFFFFFFFFFFFFFFFFFFB2
:104E1000FFFFFFFFFFFFFFFFFFFFFFFFFFFFFFFFA2
:104E2000FFFFFFFFFFFFFFFFFFFFFFFFFFFFFFFF92
:104E3000FFFFFFFFFFFFFFFFFFFFFFFFFFFFFFFF82
:104E4000FFFFFFFFFFFFFFFFFFFFFFFFFFFFFFFF72
:104E5000FFFFFFFFFFFFFFFFFFFFFFFFFFFFFFFF62
:104E6000FFFFFFFFFFFFFFFFFFFFFFFF9F9F9781F8
:104E700007FFFFFFFF7FFFFFFFFB7D7E7F3F3F1FA1
:104E80001F1F1FCF4F0F0F8F1F1F173F3F3F7F7EEB
:104E9000FEFEFCFCF8F8F8F0F0F0E0E0E0C0C080C6
:104EA0008080000000000000000000000000000002
:104EB00000000000000000000000000000000000F2
:104EC000000000000000000000000000000080C0A2
:104ED000E0F0F8FCFEFFFFFFFFFFF7F7F5E6C6DFA7
:104EE000FFFF9DAF97B7970F3F5FBF1FBFFFFEFF4D
:104EF000FEFE7C1FBF7F7F7F7FFFFFFFFF9FFFFFC7
:104F0000FFFFFFFFFFFFFFFF9FFFFFFFFFE7E0F84F
:104F1000FFFFFFFFFFFFFFFFFFFFFFF6FEFC3CC0B0
:104F2000800080FCE0010100E0F004060300E030B6
:104F3000181C04000060703000018183C303070760
:104F4000070F8F1F1F1F3F3F7F7F7FFFFFFFFFFF69
:104F5000FFFFFFFFFFFFFFFFFFFFFFFFFFFFFFFF61
:104F6000FFFFFFFFFFFFFFFFFFFFFFFFFFFFFFFF51
:104F7000FFFFFFFFFFFFFFFFFFFFFFFFFFFFFFFF41
:104F8000FFFFFFFFFFFFFFFFFFFFFFFFFFFFFFFF31
:104F9000FFFFFFFFFFFFFFFFFFFFFFFFFFFFFFFF21
:104FA000FFFFFFFFFFFFFFFFFFFFFFFFFFFFFFFF11
:104FB000FFFFFFFFFFFFFFFFFFFFFFFFFFFFFFFF01
:104FC000FFFFFFFFFFFFFFFFFFFFFFFFFFFFFFFFF1
:104FD000FFFFFFFFFFFFFFFFFFFFFFFFFFFFFFFFE1
:104FE000FFFFFFFFFFFFFFFFFFFFFFFFFFFFFFFFD1
:104FF000FFFFFFFFFFFFFFFFFFFFFFFFFFFFFFFFC1
:10500000FFFFFFFFFFFFFFFFFFFFFFFFFFFFFFFFB0
:10501000FFFFFFFFFFFFFFFFFFFFFFFFFFFFFFFFA0
:10502000FFFFFFFFFFFFFFFFFFFFFFFFFFFFFFFF90
:105030007F1F9FFFFFFFFFFFFFFFFFFFFFFFF7FF48
:10504000FFFFFFFDF8F8F0707261E0E8CCC28190DC
:1050500088040320100C8260300800C0201C080166
:10506000010103834327070F8F8F9F9F9FDFFFDF80
:10507000FFFEFEFEFCFCF8F87870F0F0E0E0E0C027
:10508000C0C08080000000000000000000000000A0
:10509000000080C0E0F0F87C3E1F8FC707070707BD
:1050A00007070707070F1F7FFFFFFFFF9F2F3F3FE8
:1050B000716527A98CC06637676F6FDFDFCDB1BA26
:1050C0003A767DFCF8F8F0F1F1E1EBEFCFDF9FBF2E
:1050D000AF6F7FFFFFFFFFFFFFFFFFFFFFFFFFFF40
:1050E000FFFFFFFFFFFFFFFFFFFFFF7E7C00FFF9D9
:1050F000FBF300FFF3E3E400C8DF9F300020F0FF84
:10510000F8E000C0FCFC010100C0F804060700E064
:10511000F0181C0E02C0E0E0B819011183C3670744
:10512000070F0F1F1F1F3F3F3F7F7FFFFFFFFFFF47
:10513000FFFFFFFFFFFFFFFFFFFFFFFFFFFFFFFF7F
:10514000FFFFFFFFFFFFFFFFFFFFFFFFFFFFFFFF6F
:10515000FFFFFFFFFFFFFFFFFFFFFFFFFFFFFFFF5F
:10516000FFFFFFFFFFFFFFFFFFFFFFFFFFFFFFFF4F
:10517000FFFFFFFFFFFFFFFFFFFFFFFFFFFFFFFF3F
:10518000FFFFFFFFFFFFFFFFFFFFFFFFFFFFFFFF2F
:10519000FFFFFFFFFFFFFFFFFFFFFFFFFFFFFFFF1F
:1051A000FFFFFFFFFFFFFFFFFFFFFFFFFFFFFFFF0F
:1051B000FFFFFFFFFFFFFFFFFFFFFFFFFFFFFFFFFF
:1051C000FFFFFFFFFFFFFFFFFFFFFFFFFFFFFFFFEF
:1051D000FFFFFFFFFFFFFFFFFFFFFFFFFFFFFFFFDF
:1051E000FFFFFFFFFFFFFFFFFFFFFFFFFFFFFFFFCF
:1051F000FFFFFFFFFFFFFFFFEFC7C1C0C0F8FFFFCA
:105200007FBFFFFF7E7F3F3F1F1F0F070703034145
:10521000C1E0F0300000000001F1FFFF07030707C5
:10522000060EFCBCBCB8F9F8F0F0E0E0E0C4C2C087
:10523000E0E0E4976F77B7D525A7876F1FF7830165
:1052400000000002023E7E7EFCFC793307FFFFFF78
:10525000FFFF7F3E0E0000000000000000011E3F27
:105260003FFFFFFEF8F0E3E7E0E0E0E0E0E0E0F041
:10527000D0D894878D983AB0D5E5617B38BEBF7F92
:10528000F9F8F2F0E1F37ABCDE6F77FBCDB6BE3F02
:105290003F9FDF7FBFDFEF77776F6FEFDFDF8DB38C
:1052A000BA7A75FDFFFBFBF3F7F7EFEFDFDFDFBF48
:1052B000BF7F7F7FFFFFCFC7C7C0DBFFFF1F0EBFD2
:1052C000FFFF7F000FFFFFFFFF00FFFFFEFE00FF5D
:1052D000FFFFFFE07EFFFFFCC018FEFFF88000E04C
:1052E000FFFEE020C1F0FEC3030180F0A00E060324
:1052F00080C030381C000080C06021010303838718
:10530000070F0F0F1F1F3F3F3F7F7F7FFFFFFFFFF5
:10531000FFFFFFFFFFFFFFFFFFFFFFFFFFFFFFFF9D
:10532000FFFFFFFFFFFFFFFFFFFFFFFFFFFFFFFF8D
:10533000FFFFFFFFFFFFFFFFFFFFFFFFFFFFFFFF7D
:10534000FFFFFFFFFFFFFFFFFFFFFFFFFFFFFFFF6D
:10535000FFFFFFFFFFFFFFFFFFFFFFFFFFFFFFFF5D
:10536000FFFFFFFFFFFFFFFFFFFFFFFFFFFFFFFF4D
:10537000FFFFFFFFFFFFFFFFFFFFFFFFFFFFFFFF3D
:10538000FFFFFFFFFFFFFFFFFFFFFFFFFFFFFFFF2D
:10539000FFFFFFFFFFFFFFFFFFFFFFFFFFFFFFFF1D
:1053A000FFFFFFFFFFFFFFFFFFFFFFFFFFFFFFFF0D
:1053B000FFFFFFFFFFFFFFFFFFFFFFFFFFFF7F3F3D
:1053C0009DC9F3FBFFFDFFDFFFFF7F1E979F3F3E61
:1053D0007CFCFCF8FCFCFEFEFCFCFCF8F8F0F18028
:1053E00000000000C0FFFF010000000000100F0FD0
:1053F0000707038381C1C06060303019190F0F07A0
:105400000706868D0C0C1E1E3F3F7FFF7EBEBCDC58
:105410001C9C3C3C7CFEFEFFFFFF7F3F0701000021
:10542000000000000000000000000000000000017B
:105430000327070F4F1F9F9F3F3F3F7F7FFFFFFFC8
:10544000F9FAF2F7E7EFE8C8D898B9BD9EEFF7FB95
:10545000EDCEDBD7C6CCDB7BBBDBEC777BBDFE3F89
:105460007BF9F0F0F0E3F67ABCDFEFF7F3CD8E3F97
:105470007979729674A5D1EF77776FEFDFDFDFADC3
:10548000B23A7675FDF9FBFBF7F7E3EDEFDEDCDC16
:10549000BFBF7F7371F0FFFFCFC7C3D0FFFF1F1FD8
:1054A000007FFFFF7F00FFFFFFFF80FFFFFFFFF890
:1054B0003FFFFFFFFC1EFEFFFFFC00F8FFFFF008B0
:1054C000E0F8FFF10080E0FCFC03030180F0180C21
:1054D0000600C0E0703818000080C1E10103030736
:1054E00087870F0F1F1F1F3F3F7F7F7FFFFFFFFF3C
:1054F000FFFFFFFFFFFFFFFFFFFFFFFFFFFFFFFFBC
:10550000FFFFFFFFFFFFFFFFFFFFFFFFFFFFFFFFAB
:10551000FFFFFFFFFFFFFFFFFFFFFFFFFFFFFFFF9B
:10552000FFFFFFFFFFFFFFFFFFFFFFFFFFFFFFFF8B
:10553000FFFFFFFFFFFFFFFFFFFFFFFFFFFFFFFF7B
:10554000FFFFFFFFFFFFFFFFFFFFFFFFFFFFFFFF6B
:10555000FFFFFFFFFFFFFFFFFFFFFFFFFFFFFFFF5B
:10556000FFFFFFFFFFFFFFFFFFFFFFFFFFFFFFFF4B
:10557000FFFFFFFFFFFFFFFFFFFFFFFFFFFFFFFF3B
:10558000FFFFFFFFDFFFFEFCFDFCFE7FFFFCF7FBE4
:10559000FFFFC7C3D19C9E9FCFCFE7E0F87F3F1F9F
:1055A00087C391B9393393C7EFFFFFFFFFFB7F7BC1
:1055B0007F7FEFE0A0B0F0F8F8FCECE6E6C3C38133
:1055C00041C0E0E0F0F0F8100000000103C3E3C3C5
:1055D000C3C0C0A0E0E0F0F8FCFBF1F4F6F0F4F298
:1055E00079380F07030000000000000000000000F1
:1055F00000000000000000000000000000000000AB
:105600000000000000010102020004040909031364
:10561000132727EF4F4FDF9F9F3F3F7F7FFFFFFF06
:10562000FBF9F2F7F7E7EDC8D8D899B9BC9FCFF7E7
:10563000FBDDDEDFD7CDCD997B3393CB65737DFE6C
:105640007F7BF9F0F0E0E7F6783C9FCF67DBBDAEFB
:105650002F0F5FDF9F7F3F9FCF676767EFDBDF9F86
:105660008BA2327575BDFBFBF7F7F7EFEFCFDFDCF1
:10567000BCBCBC7F7371F0F3FFFFCFC7D0DFFF3F2F
:105680001F007FFFFFFF60E7FFFFFFFE1FFFFFFF21
:10569000FC00FFFFF7F2F0FEFFFFF888F8F4FFFFD1
:1056A0007888E0FCFFE10080E0F8C4070300C0F068
:1056B000181C0E0080C0703018000081C1E3030385
:1056C00007070F0F0F1F1F3F3F3F7F7FFFFFFFFFAA
:1056D000FFFFFFFFFFFFFFFFFFFFFFFFFFFFFFFFDA
:1056E000FFFFFFFFFFFFFFFFFFFFFFFFFFFFFFFFCA
:1056F000FFFFFFFFFFFFFFFFFFFFFFFFFFFFFFFFBA
:10570000FFFFFFFFFFFFFFFFFFFFFFFFFFFFFFFFA9
:10571000FFFFFFFFFFFFFFFFFFFFFFFFFFFFFFFF99
:10572000FFFFFFFFFFFFFFFFFFFFFFFFFFFFFFFF89
:10573000FFFFFFFFFFFFFFFFFFFFFFFFFFFFFFFF79
:10574000FFFFFFFFFFFF7FFFFFFFFFFFFCFFFEFFED
:10575000FFBFFFE7E7CDFEFFFFEFDFDBC5F9BB9F34
:10576000CFD7D7C7FFFFFF7FBEBCFCF9F9FBF3FB28
:10577000F9FCFEFFFFDF9F9F0F07E2F8FCFEFFFF33
:10578000FF3F1F8FC7E7F7F377070FFFFFFFFFFF0D
:10579000FF7F7E7C7CFCF8F8FCFFFFFFFFFFFFFF34
:1057A000FFFFFFFFFFFF7F3F0F070100000000002A
:1057B00000000000000000000000000000000000E9
:1057C00000000000000000000000000000000000D9
:1057D00000000000000000000000000000000001C8
:1057E0000000000000010102020204040109091383
:1057F000130727274F4F1F9F1F3F3F7F7F7FFFFFCD
:10580000FFFBF9F4F6E7EFEDD8D998BBBB3C9ECF90
:10581000E7F3D9CC96978D5DDCDC79B1CDE5737972
:10582000FC7E7FF1F1E6E2E7E6F479BFDFEFB7B99E
:10583000AC2E4F5FDFBFFF7FBFDFEF67EFCFDFDF54
:105840009F9A22707575FBFBFBF7F7E7EBEECFDF56
:105850009CB8B8797F7FE3E1E0F7FF8F8FC0DFFF6F
:105860007F61FFFFFFFFFF7FFBFFFFFFFFE9FFFF00
:10587000FFFFF03FFFFFFFF62CFFFFFFF800F0FCFB
:10588000FFF9F000C0FEFFE1C180C0F8FC0E170177
:1058900080E070580C0080C0E0703001010383C3C9
:1058A00047070F0F0F1F1F1F3F3F7F7F7FFFFFFF28
:1058B000FFFFFFFFFFFFFFFFFFFFFFFFFFFFFFFFF8
:1058C000FFFFFFFFFFFFFFFFFFFFFFFFFFFFFFFFE8
:1058D000FFFFFFFFFFFFFFFFFFFFFFFFFFFFFFFFD8
:1058E000FFFFFFFFFFFFFFFFFFFFFFFFFFFFFFFFC8
:1058F000FFFFFFFFFFFFFFFFFFFFFFFFFFFFFFFFB8
:10590000FFFFFFFFFFFFFFFFFFFFFF7F3FFFFFFFE7
:10591000FFFFFEFFFFFFFFFFFFF7F3E7FFFFFFFFC4
:10592000FFFDFCFFFFDFD7E3BBBF8FEFFFFFFFFFF4
:10593000FFFDFCFEFFFFFFFFFFFFFFFFFBFBFFFF85
:10594000FFFFFFFFFFFFFFFFFFFFFFFFFFF8F8F381
:10595000F3FBF9F8FCFEFFFF9FBF1F0F46F0F8FCBA
:10596000FEFFFFFFFFFFFEFFFEFFFFFFFFBFCFE7D2
:105970000100000000000000000000000000000026
:105980000000000000000000000000000000000017
:105990000000000000000000000000000000000007
:1059A00000000000000000000000000000000000F7
:1059B00000000000000000000000000000000000E7
:1059C00000000000000101000202040401090913A3
:1059D000130727070F4F1F9F9F3F3F7F7F7FFFFFCB
:1059E000FFFFFFF3F5E6EFEFCDD8D098BB3B5A2889
:1059F000FFEFF7DBEDE6DFDD9DBCF971319DCFE612
:105A000073797EFFF3F1E4E6EEEEF4793D9FCFA7E4
:105A1000B33C7A7FFF7F3F9FFF5FBFDFEFEFCFDFBA
:105A20009FBF9E4A6475E5FFFBF7F7F7EFEECFDF08
:105A3000DFBFB93C7F7CFFE7E3E3E3FFFF8F8F87A6
:105A40009FFF7F3FE0FFFFFFFFFF7FFFFFFFFF00A4
:105A5000FFFFFFFFF6FFFFFFFFE430FEFFBFFC800C
:105A6000F0FCFFFFE180C0F0FE07038180F0F81E2C
:105A7000070300E0F078DCC48080C0E1711103030B
:105A80000787C70F0F1F1F1F3F3F7F7FFFFFFFFFCE
:105A9000FFFFFFFFFFFFFFFFFFFFFFFFFFFFFFFF16
:105AA000FFFFFFFFFFFFFFFFFFFFFFFFFFFFFFFF06
:105AB000FFFFFFFFFFFFFFFFFFFFFFFFFFFFFFFFF6
:105AC000FFFFFFFFFFFFFFFFFFF9BFDFFFFFFFFF4C
:105AD000FFBFBFFFFFFFFFFFFFFFFFFDFFDFFFFB7C
